{
	"contracts/kontrat icinde kontrat example/firstContract.sol": {
		"FC": {
			"abi": [
				{
					"inputs": [
						{
							"internalType": "address",
							"name": "_owner",
							"type": "address"
						},
						{
							"internalType": "address",
							"name": "tokenaddress",
							"type": "address"
						}
					],
					"stateMutability": "nonpayable",
					"type": "constructor"
				},
				{
					"inputs": [
						{
							"internalType": "address",
							"name": "_userWallet",
							"type": "address"
						},
						{
							"internalType": "uint256",
							"name": "_days",
							"type": "uint256"
						},
						{
							"internalType": "uint256",
							"name": "value",
							"type": "uint256"
						}
					],
					"name": "Deposit",
					"outputs": [
						{
							"internalType": "bool",
							"name": "",
							"type": "bool"
						}
					],
					"stateMutability": "nonpayable",
					"type": "function"
				},
				{
					"inputs": [
						{
							"internalType": "address",
							"name": "_OlduserWallet",
							"type": "address"
						},
						{
							"internalType": "address",
							"name": "_NewOwnerWallet",
							"type": "address"
						}
					],
					"name": "TransferOwnership",
					"outputs": [
						{
							"internalType": "bool",
							"name": "",
							"type": "bool"
						}
					],
					"stateMutability": "nonpayable",
					"type": "function"
				},
				{
					"inputs": [
						{
							"internalType": "address",
							"name": "_userWallet",
							"type": "address"
						},
						{
							"internalType": "uint256",
							"name": "_value",
							"type": "uint256"
						}
					],
					"name": "Withdraw",
					"outputs": [
						{
							"internalType": "bool",
							"name": "",
							"type": "bool"
						}
					],
					"stateMutability": "nonpayable",
					"type": "function"
				}
			],
			"devdoc": {
				"kind": "dev",
				"methods": {},
				"version": 1
			},
			"evm": {
				"assembly": "    /* \"contracts/kontrat icinde kontrat example/firstContract.sol\":115:2344  contract FC {... */\n  mstore(0x40, 0x80)\n    /* \"contracts/kontrat icinde kontrat example/firstContract.sol\":522:644  constructor(address _owner,address tokenaddress)... */\n  callvalue\n  dup1\n  iszero\n  tag_1\n  jumpi\n  revert(0x00, 0x00)\ntag_1:\n  pop\n  mload(0x40)\n  sub(codesize, bytecodeSize)\n  dup1\n  bytecodeSize\n  dup4\n  codecopy\n  dup2\n  dup2\n  add\n  0x40\n  mstore\n  dup2\n  add\n  swap1\n  tag_2\n  swap2\n  swap1\n  tag_3\n  jump\t// in\ntag_2:\n    /* \"contracts/kontrat icinde kontrat example/firstContract.sol\":599:611  tokenaddress */\n  dup1\n    /* \"contracts/kontrat icinde kontrat example/firstContract.sol\":585:590  token */\n  0x02\n  0x00\n    /* \"contracts/kontrat icinde kontrat example/firstContract.sol\":585:612  token= IERC20(tokenaddress) */\n  0x0100\n  exp\n  dup2\n  sload\n  dup2\n  0xffffffffffffffffffffffffffffffffffffffff\n  mul\n  not\n  and\n  swap1\n  dup4\n  0xffffffffffffffffffffffffffffffffffffffff\n  and\n  mul\n  or\n  swap1\n  sstore\n  pop\n    /* \"contracts/kontrat icinde kontrat example/firstContract.sol\":630:636  _owner */\n  dup2\n    /* \"contracts/kontrat icinde kontrat example/firstContract.sol\":622:627  owner */\n  0x03\n  0x00\n    /* \"contracts/kontrat icinde kontrat example/firstContract.sol\":622:636  owner = _owner */\n  0x0100\n  exp\n  dup2\n  sload\n  dup2\n  0xffffffffffffffffffffffffffffffffffffffff\n  mul\n  not\n  and\n  swap1\n  dup4\n  0xffffffffffffffffffffffffffffffffffffffff\n  and\n  mul\n  or\n  swap1\n  sstore\n  pop\n    /* \"contracts/kontrat icinde kontrat example/firstContract.sol\":522:644  constructor(address _owner,address tokenaddress)... */\n  pop\n  pop\n    /* \"contracts/kontrat icinde kontrat example/firstContract.sol\":115:2344  contract FC {... */\n  jump(tag_6)\n    /* \"#utility.yul\":88:205   */\ntag_8:\n    /* \"#utility.yul\":197:198   */\n  0x00\n    /* \"#utility.yul\":194:195   */\n  0x00\n    /* \"#utility.yul\":187:199   */\n  revert\n    /* \"#utility.yul\":334:460   */\ntag_10:\n    /* \"#utility.yul\":371:378   */\n  0x00\n    /* \"#utility.yul\":411:453   */\n  0xffffffffffffffffffffffffffffffffffffffff\n    /* \"#utility.yul\":404:409   */\n  dup3\n    /* \"#utility.yul\":400:454   */\n  and\n    /* \"#utility.yul\":389:454   */\n  swap1\n  pop\n    /* \"#utility.yul\":334:460   */\n  swap2\n  swap1\n  pop\n  jump\t// out\n    /* \"#utility.yul\":466:562   */\ntag_11:\n    /* \"#utility.yul\":503:510   */\n  0x00\n    /* \"#utility.yul\":532:556   */\n  tag_20\n    /* \"#utility.yul\":550:555   */\n  dup3\n    /* \"#utility.yul\":532:556   */\n  tag_10\n  jump\t// in\ntag_20:\n    /* \"#utility.yul\":521:556   */\n  swap1\n  pop\n    /* \"#utility.yul\":466:562   */\n  swap2\n  swap1\n  pop\n  jump\t// out\n    /* \"#utility.yul\":568:690   */\ntag_12:\n    /* \"#utility.yul\":641:665   */\n  tag_22\n    /* \"#utility.yul\":659:664   */\n  dup2\n    /* \"#utility.yul\":641:665   */\n  tag_11\n  jump\t// in\ntag_22:\n    /* \"#utility.yul\":634:639   */\n  dup2\n    /* \"#utility.yul\":631:666   */\n  eq\n    /* \"#utility.yul\":621:684   */\n  tag_23\n  jumpi\n    /* \"#utility.yul\":680:681   */\n  0x00\n    /* \"#utility.yul\":677:678   */\n  0x00\n    /* \"#utility.yul\":670:682   */\n  revert\n    /* \"#utility.yul\":621:684   */\ntag_23:\n    /* \"#utility.yul\":568:690   */\n  pop\n  jump\t// out\n    /* \"#utility.yul\":696:839   */\ntag_13:\n    /* \"#utility.yul\":753:758   */\n  0x00\n    /* \"#utility.yul\":784:790   */\n  dup2\n    /* \"#utility.yul\":778:791   */\n  mload\n    /* \"#utility.yul\":769:791   */\n  swap1\n  pop\n    /* \"#utility.yul\":800:833   */\n  tag_25\n    /* \"#utility.yul\":827:832   */\n  dup2\n    /* \"#utility.yul\":800:833   */\n  tag_12\n  jump\t// in\ntag_25:\n    /* \"#utility.yul\":696:839   */\n  swap3\n  swap2\n  pop\n  pop\n  jump\t// out\n    /* \"#utility.yul\":845:1352   */\ntag_3:\n    /* \"#utility.yul\":924:930   */\n  0x00\n    /* \"#utility.yul\":932:938   */\n  0x00\n    /* \"#utility.yul\":981:983   */\n  0x40\n    /* \"#utility.yul\":969:978   */\n  dup4\n    /* \"#utility.yul\":960:967   */\n  dup6\n    /* \"#utility.yul\":956:979   */\n  sub\n    /* \"#utility.yul\":952:984   */\n  slt\n    /* \"#utility.yul\":949:1068   */\n  iszero\n  tag_27\n  jumpi\n    /* \"#utility.yul\":987:1066   */\n  tag_28\n  tag_8\n  jump\t// in\ntag_28:\n    /* \"#utility.yul\":949:1068   */\ntag_27:\n    /* \"#utility.yul\":1107:1108   */\n  0x00\n    /* \"#utility.yul\":1132:1196   */\n  tag_29\n    /* \"#utility.yul\":1188:1195   */\n  dup6\n    /* \"#utility.yul\":1179:1185   */\n  dup3\n    /* \"#utility.yul\":1168:1177   */\n  dup7\n    /* \"#utility.yul\":1164:1186   */\n  add\n    /* \"#utility.yul\":1132:1196   */\n  tag_13\n  jump\t// in\ntag_29:\n    /* \"#utility.yul\":1122:1196   */\n  swap3\n  pop\n    /* \"#utility.yul\":1078:1206   */\n  pop\n    /* \"#utility.yul\":1245:1247   */\n  0x20\n    /* \"#utility.yul\":1271:1335   */\n  tag_30\n    /* \"#utility.yul\":1327:1334   */\n  dup6\n    /* \"#utility.yul\":1318:1324   */\n  dup3\n    /* \"#utility.yul\":1307:1316   */\n  dup7\n    /* \"#utility.yul\":1303:1325   */\n  add\n    /* \"#utility.yul\":1271:1335   */\n  tag_13\n  jump\t// in\ntag_30:\n    /* \"#utility.yul\":1261:1335   */\n  swap2\n  pop\n    /* \"#utility.yul\":1216:1345   */\n  pop\n    /* \"#utility.yul\":845:1352   */\n  swap3\n  pop\n  swap3\n  swap1\n  pop\n  jump\t// out\n    /* \"contracts/kontrat icinde kontrat example/firstContract.sol\":115:2344  contract FC {... */\ntag_6:\n  dataSize(sub_0)\n  dup1\n  dataOffset(sub_0)\n  0x00\n  codecopy\n  0x00\n  return\nstop\n\nsub_0: assembly {\n        /* \"contracts/kontrat icinde kontrat example/firstContract.sol\":115:2344  contract FC {... */\n      mstore(0x40, 0x80)\n      callvalue\n      dup1\n      iszero\n      tag_1\n      jumpi\n      revert(0x00, 0x00)\n    tag_1:\n      pop\n      jumpi(tag_2, lt(calldatasize, 0x04))\n      shr(0xe0, calldataload(0x00))\n      dup1\n      0x5c486528\n      eq\n      tag_3\n      jumpi\n      dup1\n      0x884edad9\n      eq\n      tag_4\n      jumpi\n      dup1\n      0x90890809\n      eq\n      tag_5\n      jumpi\n    tag_2:\n      revert(0x00, 0x00)\n        /* \"contracts/kontrat icinde kontrat example/firstContract.sol\":1531:2341  function TransferOwnership(address _OlduserWallet, address _NewOwnerWallet) public OnlyContract returns (bool) {... */\n    tag_3:\n      tag_6\n      0x04\n      dup1\n      calldatasize\n      sub\n      dup2\n      add\n      swap1\n      tag_7\n      swap2\n      swap1\n      tag_8\n      jump\t// in\n    tag_7:\n      tag_9\n      jump\t// in\n    tag_6:\n      mload(0x40)\n      tag_10\n      swap2\n      swap1\n      tag_11\n      jump\t// in\n    tag_10:\n      mload(0x40)\n      dup1\n      swap2\n      sub\n      swap1\n      return\n        /* \"contracts/kontrat icinde kontrat example/firstContract.sol\":1077:1525  function Withdraw(address _userWallet,uint _value) public Days(_userWallet) OnlyContract returns(bool) {... */\n    tag_4:\n      tag_12\n      0x04\n      dup1\n      calldatasize\n      sub\n      dup2\n      add\n      swap1\n      tag_13\n      swap2\n      swap1\n      tag_14\n      jump\t// in\n    tag_13:\n      tag_15\n      jump\t// in\n    tag_12:\n      mload(0x40)\n      tag_16\n      swap2\n      swap1\n      tag_11\n      jump\t// in\n    tag_16:\n      mload(0x40)\n      dup1\n      swap2\n      sub\n      swap1\n      return\n        /* \"contracts/kontrat icinde kontrat example/firstContract.sol\":651:1071  function Deposit(address _userWallet,uint _days,uint value) OnlyContract public  returns (bool) {... */\n    tag_5:\n      tag_17\n      0x04\n      dup1\n      calldatasize\n      sub\n      dup2\n      add\n      swap1\n      tag_18\n      swap2\n      swap1\n      tag_19\n      jump\t// in\n    tag_18:\n      tag_20\n      jump\t// in\n    tag_17:\n      mload(0x40)\n      tag_21\n      swap2\n      swap1\n      tag_11\n      jump\t// in\n    tag_21:\n      mload(0x40)\n      dup1\n      swap2\n      sub\n      swap1\n      return\n        /* \"contracts/kontrat icinde kontrat example/firstContract.sol\":1531:2341  function TransferOwnership(address _OlduserWallet, address _NewOwnerWallet) public OnlyContract returns (bool) {... */\n    tag_9:\n        /* \"contracts/kontrat icinde kontrat example/firstContract.sol\":1636:1640  bool */\n      0x00\n        /* \"contracts/kontrat icinde kontrat example/firstContract.sol\":311:316  owner */\n      0x03\n      0x00\n      swap1\n      sload\n      swap1\n      0x0100\n      exp\n      swap1\n      div\n      0xffffffffffffffffffffffffffffffffffffffff\n      and\n        /* \"contracts/kontrat icinde kontrat example/firstContract.sol\":297:316  msg.sender == owner */\n      0xffffffffffffffffffffffffffffffffffffffff\n      and\n        /* \"contracts/kontrat icinde kontrat example/firstContract.sol\":297:307  msg.sender */\n      caller\n        /* \"contracts/kontrat icinde kontrat example/firstContract.sol\":297:316  msg.sender == owner */\n      0xffffffffffffffffffffffffffffffffffffffff\n      and\n      eq\n        /* \"contracts/kontrat icinde kontrat example/firstContract.sol\":289:350  require(msg.sender == owner,\"Sadece Kontrat Islem Yapabilir\") */\n      tag_23\n      jumpi\n      mload(0x40)\n      0x08c379a000000000000000000000000000000000000000000000000000000000\n      dup2\n      mstore\n      0x04\n      add\n      tag_24\n      swap1\n      tag_25\n      jump\t// in\n    tag_24:\n      mload(0x40)\n      dup1\n      swap2\n      sub\n      swap1\n      revert\n    tag_23:\n        /* \"contracts/kontrat icinde kontrat example/firstContract.sol\":1686:1687  0 */\n      0x00\n        /* \"contracts/kontrat icinde kontrat example/firstContract.sol\":1655:1666  usersAmount */\n      0x00\n        /* \"contracts/kontrat icinde kontrat example/firstContract.sol\":1655:1683  usersAmount[_NewOwnerWallet] */\n      0x00\n        /* \"contracts/kontrat icinde kontrat example/firstContract.sol\":1667:1682  _NewOwnerWallet */\n      dup5\n        /* \"contracts/kontrat icinde kontrat example/firstContract.sol\":1655:1683  usersAmount[_NewOwnerWallet] */\n      0xffffffffffffffffffffffffffffffffffffffff\n      and\n      0xffffffffffffffffffffffffffffffffffffffff\n      and\n      dup2\n      mstore\n      0x20\n      add\n      swap1\n      dup2\n      mstore\n      0x20\n      add\n      0x00\n      keccak256\n      sload\n        /* \"contracts/kontrat icinde kontrat example/firstContract.sol\":1655:1687  usersAmount[_NewOwnerWallet] > 0 */\n      gt\n        /* \"contracts/kontrat icinde kontrat example/firstContract.sol\":1652:2217  if(usersAmount[_NewOwnerWallet] > 0)... */\n      iszero\n      tag_27\n      jumpi\n        /* \"contracts/kontrat icinde kontrat example/firstContract.sol\":1743:1754  usersAmount */\n      0x00\n        /* \"contracts/kontrat icinde kontrat example/firstContract.sol\":1743:1770  usersAmount[_OlduserWallet] */\n      0x00\n        /* \"contracts/kontrat icinde kontrat example/firstContract.sol\":1755:1769  _OlduserWallet */\n      dup5\n        /* \"contracts/kontrat icinde kontrat example/firstContract.sol\":1743:1770  usersAmount[_OlduserWallet] */\n      0xffffffffffffffffffffffffffffffffffffffff\n      and\n      0xffffffffffffffffffffffffffffffffffffffff\n      and\n      dup2\n      mstore\n      0x20\n      add\n      swap1\n      dup2\n      mstore\n      0x20\n      add\n      0x00\n      keccak256\n      sload\n        /* \"contracts/kontrat icinde kontrat example/firstContract.sol\":1711:1722  usersAmount */\n      0x00\n        /* \"contracts/kontrat icinde kontrat example/firstContract.sol\":1711:1739  usersAmount[_NewOwnerWallet] */\n      0x00\n        /* \"contracts/kontrat icinde kontrat example/firstContract.sol\":1723:1738  _NewOwnerWallet */\n      dup5\n        /* \"contracts/kontrat icinde kontrat example/firstContract.sol\":1711:1739  usersAmount[_NewOwnerWallet] */\n      0xffffffffffffffffffffffffffffffffffffffff\n      and\n      0xffffffffffffffffffffffffffffffffffffffff\n      and\n      dup2\n      mstore\n      0x20\n      add\n      swap1\n      dup2\n      mstore\n      0x20\n      add\n      0x00\n      keccak256\n      0x00\n        /* \"contracts/kontrat icinde kontrat example/firstContract.sol\":1711:1770  usersAmount[_NewOwnerWallet] += usersAmount[_OlduserWallet] */\n      dup3\n      dup3\n      sload\n      tag_28\n      swap2\n      swap1\n      tag_29\n      jump\t// in\n    tag_28:\n      swap3\n      pop\n      pop\n      dup2\n      swap1\n      sstore\n      pop\n        /* \"contracts/kontrat icinde kontrat example/firstContract.sol\":1812:1820  userDays */\n      0x01\n        /* \"contracts/kontrat icinde kontrat example/firstContract.sol\":1812:1836  userDays[_OlduserWallet] */\n      0x00\n        /* \"contracts/kontrat icinde kontrat example/firstContract.sol\":1821:1835  _OlduserWallet */\n      dup5\n        /* \"contracts/kontrat icinde kontrat example/firstContract.sol\":1812:1836  userDays[_OlduserWallet] */\n      0xffffffffffffffffffffffffffffffffffffffff\n      and\n      0xffffffffffffffffffffffffffffffffffffffff\n      and\n      dup2\n      mstore\n      0x20\n      add\n      swap1\n      dup2\n      mstore\n      0x20\n      add\n      0x00\n      keccak256\n      sload\n        /* \"contracts/kontrat icinde kontrat example/firstContract.sol\":1784:1792  userDays */\n      0x01\n        /* \"contracts/kontrat icinde kontrat example/firstContract.sol\":1784:1809  userDays[_NewOwnerWallet] */\n      0x00\n        /* \"contracts/kontrat icinde kontrat example/firstContract.sol\":1793:1808  _NewOwnerWallet */\n      dup5\n        /* \"contracts/kontrat icinde kontrat example/firstContract.sol\":1784:1809  userDays[_NewOwnerWallet] */\n      0xffffffffffffffffffffffffffffffffffffffff\n      and\n      0xffffffffffffffffffffffffffffffffffffffff\n      and\n      dup2\n      mstore\n      0x20\n      add\n      swap1\n      dup2\n      mstore\n      0x20\n      add\n      0x00\n      keccak256\n        /* \"contracts/kontrat icinde kontrat example/firstContract.sol\":1784:1836  userDays[_NewOwnerWallet] = userDays[_OlduserWallet] */\n      dup2\n      swap1\n      sstore\n      pop\n        /* \"contracts/kontrat icinde kontrat example/firstContract.sol\":1857:1868  usersAmount */\n      0x00\n        /* \"contracts/kontrat icinde kontrat example/firstContract.sol\":1857:1884  usersAmount[_OlduserWallet] */\n      0x00\n        /* \"contracts/kontrat icinde kontrat example/firstContract.sol\":1869:1883  _OlduserWallet */\n      dup5\n        /* \"contracts/kontrat icinde kontrat example/firstContract.sol\":1857:1884  usersAmount[_OlduserWallet] */\n      0xffffffffffffffffffffffffffffffffffffffff\n      and\n      0xffffffffffffffffffffffffffffffffffffffff\n      and\n      dup2\n      mstore\n      0x20\n      add\n      swap1\n      dup2\n      mstore\n      0x20\n      add\n      0x00\n      keccak256\n        /* \"contracts/kontrat icinde kontrat example/firstContract.sol\":1850:1884  delete usersAmount[_OlduserWallet] */\n      0x00\n      swap1\n      sstore\n        /* \"contracts/kontrat icinde kontrat example/firstContract.sol\":1905:1913  userDays */\n      0x01\n        /* \"contracts/kontrat icinde kontrat example/firstContract.sol\":1905:1929  userDays[_OlduserWallet] */\n      0x00\n        /* \"contracts/kontrat icinde kontrat example/firstContract.sol\":1914:1928  _OlduserWallet */\n      dup5\n        /* \"contracts/kontrat icinde kontrat example/firstContract.sol\":1905:1929  userDays[_OlduserWallet] */\n      0xffffffffffffffffffffffffffffffffffffffff\n      and\n      0xffffffffffffffffffffffffffffffffffffffff\n      and\n      dup2\n      mstore\n      0x20\n      add\n      swap1\n      dup2\n      mstore\n      0x20\n      add\n      0x00\n      keccak256\n        /* \"contracts/kontrat icinde kontrat example/firstContract.sol\":1898:1929  delete userDays[_OlduserWallet] */\n      0x00\n      swap1\n      sstore\n        /* \"contracts/kontrat icinde kontrat example/firstContract.sol\":1652:2217  if(usersAmount[_NewOwnerWallet] > 0)... */\n      jump(tag_30)\n    tag_27:\n        /* \"contracts/kontrat icinde kontrat example/firstContract.sol\":1999:2010  usersAmount */\n      0x00\n        /* \"contracts/kontrat icinde kontrat example/firstContract.sol\":1999:2026  usersAmount[_OlduserWallet] */\n      0x00\n        /* \"contracts/kontrat icinde kontrat example/firstContract.sol\":2011:2025  _OlduserWallet */\n      dup5\n        /* \"contracts/kontrat icinde kontrat example/firstContract.sol\":1999:2026  usersAmount[_OlduserWallet] */\n      0xffffffffffffffffffffffffffffffffffffffff\n      and\n      0xffffffffffffffffffffffffffffffffffffffff\n      and\n      dup2\n      mstore\n      0x20\n      add\n      swap1\n      dup2\n      mstore\n      0x20\n      add\n      0x00\n      keccak256\n      sload\n        /* \"contracts/kontrat icinde kontrat example/firstContract.sol\":1967:1978  usersAmount */\n      0x00\n        /* \"contracts/kontrat icinde kontrat example/firstContract.sol\":1967:1995  usersAmount[_NewOwnerWallet] */\n      0x00\n        /* \"contracts/kontrat icinde kontrat example/firstContract.sol\":1979:1994  _NewOwnerWallet */\n      dup5\n        /* \"contracts/kontrat icinde kontrat example/firstContract.sol\":1967:1995  usersAmount[_NewOwnerWallet] */\n      0xffffffffffffffffffffffffffffffffffffffff\n      and\n      0xffffffffffffffffffffffffffffffffffffffff\n      and\n      dup2\n      mstore\n      0x20\n      add\n      swap1\n      dup2\n      mstore\n      0x20\n      add\n      0x00\n      keccak256\n      0x00\n        /* \"contracts/kontrat icinde kontrat example/firstContract.sol\":1967:2026  usersAmount[_NewOwnerWallet] += usersAmount[_OlduserWallet] */\n      dup3\n      dup3\n      sload\n      tag_31\n      swap2\n      swap1\n      tag_29\n      jump\t// in\n    tag_31:\n      swap3\n      pop\n      pop\n      dup2\n      swap1\n      sstore\n      pop\n        /* \"contracts/kontrat icinde kontrat example/firstContract.sol\":2071:2079  userDays */\n      0x01\n        /* \"contracts/kontrat icinde kontrat example/firstContract.sol\":2071:2095  userDays[_OlduserWallet] */\n      0x00\n        /* \"contracts/kontrat icinde kontrat example/firstContract.sol\":2080:2094  _OlduserWallet */\n      dup5\n        /* \"contracts/kontrat icinde kontrat example/firstContract.sol\":2071:2095  userDays[_OlduserWallet] */\n      0xffffffffffffffffffffffffffffffffffffffff\n      and\n      0xffffffffffffffffffffffffffffffffffffffff\n      and\n      dup2\n      mstore\n      0x20\n      add\n      swap1\n      dup2\n      mstore\n      0x20\n      add\n      0x00\n      keccak256\n      sload\n        /* \"contracts/kontrat icinde kontrat example/firstContract.sol\":2043:2051  userDays */\n      0x01\n        /* \"contracts/kontrat icinde kontrat example/firstContract.sol\":2043:2068  userDays[_NewOwnerWallet] */\n      0x00\n        /* \"contracts/kontrat icinde kontrat example/firstContract.sol\":2052:2067  _NewOwnerWallet */\n      dup5\n        /* \"contracts/kontrat icinde kontrat example/firstContract.sol\":2043:2068  userDays[_NewOwnerWallet] */\n      0xffffffffffffffffffffffffffffffffffffffff\n      and\n      0xffffffffffffffffffffffffffffffffffffffff\n      and\n      dup2\n      mstore\n      0x20\n      add\n      swap1\n      dup2\n      mstore\n      0x20\n      add\n      0x00\n      keccak256\n      sload\n        /* \"contracts/kontrat icinde kontrat example/firstContract.sol\":2043:2095  userDays[_NewOwnerWallet] < userDays[_OlduserWallet] */\n      lt\n        /* \"contracts/kontrat icinde kontrat example/firstContract.sol\":2040:2194  if(userDays[_NewOwnerWallet] < userDays[_OlduserWallet])... */\n      iszero\n      tag_32\n      jumpi\n        /* \"contracts/kontrat icinde kontrat example/firstContract.sol\":2155:2163  userDays */\n      0x01\n        /* \"contracts/kontrat icinde kontrat example/firstContract.sol\":2155:2179  userDays[_OlduserWallet] */\n      0x00\n        /* \"contracts/kontrat icinde kontrat example/firstContract.sol\":2164:2178  _OlduserWallet */\n      dup5\n        /* \"contracts/kontrat icinde kontrat example/firstContract.sol\":2155:2179  userDays[_OlduserWallet] */\n      0xffffffffffffffffffffffffffffffffffffffff\n      and\n      0xffffffffffffffffffffffffffffffffffffffff\n      and\n      dup2\n      mstore\n      0x20\n      add\n      swap1\n      dup2\n      mstore\n      0x20\n      add\n      0x00\n      keccak256\n      sload\n        /* \"contracts/kontrat icinde kontrat example/firstContract.sol\":2127:2135  userDays */\n      0x01\n        /* \"contracts/kontrat icinde kontrat example/firstContract.sol\":2127:2152  userDays[_NewOwnerWallet] */\n      0x00\n        /* \"contracts/kontrat icinde kontrat example/firstContract.sol\":2136:2151  _NewOwnerWallet */\n      dup5\n        /* \"contracts/kontrat icinde kontrat example/firstContract.sol\":2127:2152  userDays[_NewOwnerWallet] */\n      0xffffffffffffffffffffffffffffffffffffffff\n      and\n      0xffffffffffffffffffffffffffffffffffffffff\n      and\n      dup2\n      mstore\n      0x20\n      add\n      swap1\n      dup2\n      mstore\n      0x20\n      add\n      0x00\n      keccak256\n        /* \"contracts/kontrat icinde kontrat example/firstContract.sol\":2127:2179  userDays[_NewOwnerWallet] = userDays[_OlduserWallet] */\n      dup2\n      swap1\n      sstore\n      pop\n        /* \"contracts/kontrat icinde kontrat example/firstContract.sol\":2040:2194  if(userDays[_NewOwnerWallet] < userDays[_OlduserWallet])... */\n    tag_32:\n        /* \"contracts/kontrat icinde kontrat example/firstContract.sol\":1652:2217  if(usersAmount[_NewOwnerWallet] > 0)... */\n    tag_30:\n        /* \"contracts/kontrat icinde kontrat example/firstContract.sol\":2237:2248  usersAmount */\n      0x00\n        /* \"contracts/kontrat icinde kontrat example/firstContract.sol\":2237:2264  usersAmount[_OlduserWallet] */\n      0x00\n        /* \"contracts/kontrat icinde kontrat example/firstContract.sol\":2249:2263  _OlduserWallet */\n      dup5\n        /* \"contracts/kontrat icinde kontrat example/firstContract.sol\":2237:2264  usersAmount[_OlduserWallet] */\n      0xffffffffffffffffffffffffffffffffffffffff\n      and\n      0xffffffffffffffffffffffffffffffffffffffff\n      and\n      dup2\n      mstore\n      0x20\n      add\n      swap1\n      dup2\n      mstore\n      0x20\n      add\n      0x00\n      keccak256\n        /* \"contracts/kontrat icinde kontrat example/firstContract.sol\":2230:2264  delete usersAmount[_OlduserWallet] */\n      0x00\n      swap1\n      sstore\n        /* \"contracts/kontrat icinde kontrat example/firstContract.sol\":2285:2293  userDays */\n      0x01\n        /* \"contracts/kontrat icinde kontrat example/firstContract.sol\":2285:2309  userDays[_OlduserWallet] */\n      0x00\n        /* \"contracts/kontrat icinde kontrat example/firstContract.sol\":2294:2308  _OlduserWallet */\n      dup5\n        /* \"contracts/kontrat icinde kontrat example/firstContract.sol\":2285:2309  userDays[_OlduserWallet] */\n      0xffffffffffffffffffffffffffffffffffffffff\n      and\n      0xffffffffffffffffffffffffffffffffffffffff\n      and\n      dup2\n      mstore\n      0x20\n      add\n      swap1\n      dup2\n      mstore\n      0x20\n      add\n      0x00\n      keccak256\n        /* \"contracts/kontrat icinde kontrat example/firstContract.sol\":2278:2309  delete userDays[_OlduserWallet] */\n      0x00\n      swap1\n      sstore\n        /* \"contracts/kontrat icinde kontrat example/firstContract.sol\":2330:2334  true */\n      0x01\n        /* \"contracts/kontrat icinde kontrat example/firstContract.sol\":2323:2334  return true */\n      swap1\n      pop\n        /* \"contracts/kontrat icinde kontrat example/firstContract.sol\":1531:2341  function TransferOwnership(address _OlduserWallet, address _NewOwnerWallet) public OnlyContract returns (bool) {... */\n      swap3\n      swap2\n      pop\n      pop\n      jump\t// out\n        /* \"contracts/kontrat icinde kontrat example/firstContract.sol\":1077:1525  function Withdraw(address _userWallet,uint _value) public Days(_userWallet) OnlyContract returns(bool) {... */\n    tag_15:\n        /* \"contracts/kontrat icinde kontrat example/firstContract.sol\":1174:1178  bool */\n      0x00\n        /* \"contracts/kontrat icinde kontrat example/firstContract.sol\":1140:1151  _userWallet */\n      dup3\n        /* \"contracts/kontrat icinde kontrat example/firstContract.sol\":446:454  userDays */\n      0x01\n        /* \"contracts/kontrat icinde kontrat example/firstContract.sol\":446:467  userDays[_userWallet] */\n      0x00\n        /* \"contracts/kontrat icinde kontrat example/firstContract.sol\":455:466  _userWallet */\n      dup3\n        /* \"contracts/kontrat icinde kontrat example/firstContract.sol\":446:467  userDays[_userWallet] */\n      0xffffffffffffffffffffffffffffffffffffffff\n      and\n      0xffffffffffffffffffffffffffffffffffffffff\n      and\n      dup2\n      mstore\n      0x20\n      add\n      swap1\n      dup2\n      mstore\n      0x20\n      add\n      0x00\n      keccak256\n      sload\n        /* \"contracts/kontrat icinde kontrat example/firstContract.sol\":427:442  block.timestamp */\n      timestamp\n        /* \"contracts/kontrat icinde kontrat example/firstContract.sol\":427:467  block.timestamp >= userDays[_userWallet] */\n      lt\n      iszero\n        /* \"contracts/kontrat icinde kontrat example/firstContract.sol\":419:496  require(block.timestamp >= userDays[_userWallet],\"Cekim Tarihi Daha Gelmedi\") */\n      tag_34\n      jumpi\n      mload(0x40)\n      0x08c379a000000000000000000000000000000000000000000000000000000000\n      dup2\n      mstore\n      0x04\n      add\n      tag_35\n      swap1\n      tag_36\n      jump\t// in\n    tag_35:\n      mload(0x40)\n      dup1\n      swap2\n      sub\n      swap1\n      revert\n    tag_34:\n        /* \"contracts/kontrat icinde kontrat example/firstContract.sol\":311:316  owner */\n      0x03\n      0x00\n      swap1\n      sload\n      swap1\n      0x0100\n      exp\n      swap1\n      div\n      0xffffffffffffffffffffffffffffffffffffffff\n      and\n        /* \"contracts/kontrat icinde kontrat example/firstContract.sol\":297:316  msg.sender == owner */\n      0xffffffffffffffffffffffffffffffffffffffff\n      and\n        /* \"contracts/kontrat icinde kontrat example/firstContract.sol\":297:307  msg.sender */\n      caller\n        /* \"contracts/kontrat icinde kontrat example/firstContract.sol\":297:316  msg.sender == owner */\n      0xffffffffffffffffffffffffffffffffffffffff\n      and\n      eq\n        /* \"contracts/kontrat icinde kontrat example/firstContract.sol\":289:350  require(msg.sender == owner,\"Sadece Kontrat Islem Yapabilir\") */\n      tag_38\n      jumpi\n      mload(0x40)\n      0x08c379a000000000000000000000000000000000000000000000000000000000\n      dup2\n      mstore\n      0x04\n      add\n      tag_39\n      swap1\n      tag_25\n      jump\t// in\n    tag_39:\n      mload(0x40)\n      dup1\n      swap2\n      sub\n      swap1\n      revert\n    tag_38:\n        /* \"contracts/kontrat icinde kontrat example/firstContract.sol\":1226:1232  _value */\n      dup3\n        /* \"contracts/kontrat icinde kontrat example/firstContract.sol\":1198:1209  usersAmount */\n      0x00\n        /* \"contracts/kontrat icinde kontrat example/firstContract.sol\":1198:1222  usersAmount[_userWallet] */\n      0x00\n        /* \"contracts/kontrat icinde kontrat example/firstContract.sol\":1210:1221  _userWallet */\n      dup7\n        /* \"contracts/kontrat icinde kontrat example/firstContract.sol\":1198:1222  usersAmount[_userWallet] */\n      0xffffffffffffffffffffffffffffffffffffffff\n      and\n      0xffffffffffffffffffffffffffffffffffffffff\n      and\n      dup2\n      mstore\n      0x20\n      add\n      swap1\n      dup2\n      mstore\n      0x20\n      add\n      0x00\n      keccak256\n      sload\n        /* \"contracts/kontrat icinde kontrat example/firstContract.sol\":1198:1232  usersAmount[_userWallet] >= _value */\n      lt\n      iszero\n        /* \"contracts/kontrat icinde kontrat example/firstContract.sol\":1190:1251  require(usersAmount[_userWallet] >= _value,\"Yetersiz Miktar\") */\n      tag_41\n      jumpi\n      mload(0x40)\n      0x08c379a000000000000000000000000000000000000000000000000000000000\n      dup2\n      mstore\n      0x04\n      add\n      tag_42\n      swap1\n      tag_43\n      jump\t// in\n    tag_42:\n      mload(0x40)\n      dup1\n      swap2\n      sub\n      swap1\n      revert\n    tag_41:\n        /* \"contracts/kontrat icinde kontrat example/firstContract.sol\":1260:1265  token */\n      0x02\n      0x00\n      swap1\n      sload\n      swap1\n      0x0100\n      exp\n      swap1\n      div\n      0xffffffffffffffffffffffffffffffffffffffff\n      and\n        /* \"contracts/kontrat icinde kontrat example/firstContract.sol\":1260:1274  token.transfer */\n      0xffffffffffffffffffffffffffffffffffffffff\n      and\n      0xa9059cbb\n        /* \"contracts/kontrat icinde kontrat example/firstContract.sol\":1275:1286  _userWallet */\n      dup6\n        /* \"contracts/kontrat icinde kontrat example/firstContract.sol\":1288:1294  _value */\n      dup6\n        /* \"contracts/kontrat icinde kontrat example/firstContract.sol\":1260:1295  token.transfer(_userWallet, _value) */\n      mload(0x40)\n      dup4\n      0xffffffff\n      and\n      0xe0\n      shl\n      dup2\n      mstore\n      0x04\n      add\n      tag_44\n      swap3\n      swap2\n      swap1\n      tag_45\n      jump\t// in\n    tag_44:\n      0x20\n      mload(0x40)\n      dup1\n      dup4\n      sub\n      dup2\n      0x00\n      dup8\n      gas\n      call\n      iszero\n      dup1\n      iszero\n      tag_47\n      jumpi\n      returndatacopy(0x00, 0x00, returndatasize)\n      revert(0x00, returndatasize)\n    tag_47:\n      pop\n      pop\n      pop\n      pop\n      mload(0x40)\n      returndatasize\n      not(0x1f)\n      0x1f\n      dup3\n      add\n      and\n      dup3\n      add\n      dup1\n      0x40\n      mstore\n      pop\n      dup2\n      add\n      swap1\n      tag_48\n      swap2\n      swap1\n      tag_49\n      jump\t// in\n    tag_48:\n      pop\n        /* \"contracts/kontrat icinde kontrat example/firstContract.sol\":1333:1339  _value */\n      dup3\n        /* \"contracts/kontrat icinde kontrat example/firstContract.sol\":1305:1316  usersAmount */\n      0x00\n        /* \"contracts/kontrat icinde kontrat example/firstContract.sol\":1305:1329  usersAmount[_userWallet] */\n      0x00\n        /* \"contracts/kontrat icinde kontrat example/firstContract.sol\":1317:1328  _userWallet */\n      dup7\n        /* \"contracts/kontrat icinde kontrat example/firstContract.sol\":1305:1329  usersAmount[_userWallet] */\n      0xffffffffffffffffffffffffffffffffffffffff\n      and\n      0xffffffffffffffffffffffffffffffffffffffff\n      and\n      dup2\n      mstore\n      0x20\n      add\n      swap1\n      dup2\n      mstore\n      0x20\n      add\n      0x00\n      keccak256\n      0x00\n        /* \"contracts/kontrat icinde kontrat example/firstContract.sol\":1305:1339  usersAmount[_userWallet] -= _value */\n      dup3\n      dup3\n      sload\n      tag_50\n      swap2\n      swap1\n      tag_51\n      jump\t// in\n    tag_50:\n      swap3\n      pop\n      pop\n      dup2\n      swap1\n      sstore\n      pop\n        /* \"contracts/kontrat icinde kontrat example/firstContract.sol\":1380:1381  0 */\n      0x00\n        /* \"contracts/kontrat icinde kontrat example/firstContract.sol\":1352:1363  usersAmount */\n      0x00\n        /* \"contracts/kontrat icinde kontrat example/firstContract.sol\":1352:1376  usersAmount[_userWallet] */\n      0x00\n        /* \"contracts/kontrat icinde kontrat example/firstContract.sol\":1364:1375  _userWallet */\n      dup7\n        /* \"contracts/kontrat icinde kontrat example/firstContract.sol\":1352:1376  usersAmount[_userWallet] */\n      0xffffffffffffffffffffffffffffffffffffffff\n      and\n      0xffffffffffffffffffffffffffffffffffffffff\n      and\n      dup2\n      mstore\n      0x20\n      add\n      swap1\n      dup2\n      mstore\n      0x20\n      add\n      0x00\n      keccak256\n      sload\n        /* \"contracts/kontrat icinde kontrat example/firstContract.sol\":1352:1381  usersAmount[_userWallet] == 0 */\n      sub\n        /* \"contracts/kontrat icinde kontrat example/firstContract.sol\":1349:1489  if(usersAmount[_userWallet] == 0)... */\n      tag_52\n      jumpi\n        /* \"contracts/kontrat icinde kontrat example/firstContract.sol\":1412:1420  userDays */\n      0x01\n        /* \"contracts/kontrat icinde kontrat example/firstContract.sol\":1412:1433  userDays[_userWallet] */\n      0x00\n        /* \"contracts/kontrat icinde kontrat example/firstContract.sol\":1421:1432  _userWallet */\n      dup6\n        /* \"contracts/kontrat icinde kontrat example/firstContract.sol\":1412:1433  userDays[_userWallet] */\n      0xffffffffffffffffffffffffffffffffffffffff\n      and\n      0xffffffffffffffffffffffffffffffffffffffff\n      and\n      dup2\n      mstore\n      0x20\n      add\n      swap1\n      dup2\n      mstore\n      0x20\n      add\n      0x00\n      keccak256\n        /* \"contracts/kontrat icinde kontrat example/firstContract.sol\":1405:1433  delete userDays[_userWallet] */\n      0x00\n      swap1\n      sstore\n        /* \"contracts/kontrat icinde kontrat example/firstContract.sol\":1454:1465  usersAmount */\n      0x00\n        /* \"contracts/kontrat icinde kontrat example/firstContract.sol\":1454:1478  usersAmount[_userWallet] */\n      0x00\n        /* \"contracts/kontrat icinde kontrat example/firstContract.sol\":1466:1477  _userWallet */\n      dup6\n        /* \"contracts/kontrat icinde kontrat example/firstContract.sol\":1454:1478  usersAmount[_userWallet] */\n      0xffffffffffffffffffffffffffffffffffffffff\n      and\n      0xffffffffffffffffffffffffffffffffffffffff\n      and\n      dup2\n      mstore\n      0x20\n      add\n      swap1\n      dup2\n      mstore\n      0x20\n      add\n      0x00\n      keccak256\n        /* \"contracts/kontrat icinde kontrat example/firstContract.sol\":1447:1478  delete usersAmount[_userWallet] */\n      0x00\n      swap1\n      sstore\n        /* \"contracts/kontrat icinde kontrat example/firstContract.sol\":1349:1489  if(usersAmount[_userWallet] == 0)... */\n    tag_52:\n        /* \"contracts/kontrat icinde kontrat example/firstContract.sol\":1505:1509  true */\n      0x01\n        /* \"contracts/kontrat icinde kontrat example/firstContract.sol\":1498:1509  return true */\n      swap2\n      pop\n        /* \"contracts/kontrat icinde kontrat example/firstContract.sol\":1077:1525  function Withdraw(address _userWallet,uint _value) public Days(_userWallet) OnlyContract returns(bool) {... */\n      pop\n      swap3\n      swap2\n      pop\n      pop\n      jump\t// out\n        /* \"contracts/kontrat icinde kontrat example/firstContract.sol\":651:1071  function Deposit(address _userWallet,uint _days,uint value) OnlyContract public  returns (bool) {... */\n    tag_20:\n        /* \"contracts/kontrat icinde kontrat example/firstContract.sol\":741:745  bool */\n      0x00\n        /* \"contracts/kontrat icinde kontrat example/firstContract.sol\":311:316  owner */\n      0x03\n      0x00\n      swap1\n      sload\n      swap1\n      0x0100\n      exp\n      swap1\n      div\n      0xffffffffffffffffffffffffffffffffffffffff\n      and\n        /* \"contracts/kontrat icinde kontrat example/firstContract.sol\":297:316  msg.sender == owner */\n      0xffffffffffffffffffffffffffffffffffffffff\n      and\n        /* \"contracts/kontrat icinde kontrat example/firstContract.sol\":297:307  msg.sender */\n      caller\n        /* \"contracts/kontrat icinde kontrat example/firstContract.sol\":297:316  msg.sender == owner */\n      0xffffffffffffffffffffffffffffffffffffffff\n      and\n      eq\n        /* \"contracts/kontrat icinde kontrat example/firstContract.sol\":289:350  require(msg.sender == owner,\"Sadece Kontrat Islem Yapabilir\") */\n      tag_54\n      jumpi\n      mload(0x40)\n      0x08c379a000000000000000000000000000000000000000000000000000000000\n      dup2\n      mstore\n      0x04\n      add\n      tag_55\n      swap1\n      tag_25\n      jump\t// in\n    tag_55:\n      mload(0x40)\n      dup1\n      swap2\n      sub\n      swap1\n      revert\n    tag_54:\n        /* \"contracts/kontrat icinde kontrat example/firstContract.sol\":811:816  value */\n      dup2\n        /* \"contracts/kontrat icinde kontrat example/firstContract.sol\":765:770  token */\n      0x02\n      0x00\n      swap1\n      sload\n      swap1\n      0x0100\n      exp\n      swap1\n      div\n      0xffffffffffffffffffffffffffffffffffffffff\n      and\n        /* \"contracts/kontrat icinde kontrat example/firstContract.sol\":765:780  token.allowance */\n      0xffffffffffffffffffffffffffffffffffffffff\n      and\n      0xdd62ed3e\n        /* \"contracts/kontrat icinde kontrat example/firstContract.sol\":781:791  msg.sender */\n      caller\n        /* \"contracts/kontrat icinde kontrat example/firstContract.sol\":801:805  this */\n      address\n        /* \"contracts/kontrat icinde kontrat example/firstContract.sol\":765:807  token.allowance(msg.sender, address(this)) */\n      mload(0x40)\n      dup4\n      0xffffffff\n      and\n      0xe0\n      shl\n      dup2\n      mstore\n      0x04\n      add\n      tag_57\n      swap3\n      swap2\n      swap1\n      tag_58\n      jump\t// in\n    tag_57:\n      0x20\n      mload(0x40)\n      dup1\n      dup4\n      sub\n      dup2\n      dup7\n      gas\n      staticcall\n      iszero\n      dup1\n      iszero\n      tag_60\n      jumpi\n      returndatacopy(0x00, 0x00, returndatasize)\n      revert(0x00, returndatasize)\n    tag_60:\n      pop\n      pop\n      pop\n      pop\n      mload(0x40)\n      returndatasize\n      not(0x1f)\n      0x1f\n      dup3\n      add\n      and\n      dup3\n      add\n      dup1\n      0x40\n      mstore\n      pop\n      dup2\n      add\n      swap1\n      tag_61\n      swap2\n      swap1\n      tag_62\n      jump\t// in\n    tag_61:\n        /* \"contracts/kontrat icinde kontrat example/firstContract.sol\":765:816  token.allowance(msg.sender, address(this)) >= value */\n      lt\n      iszero\n        /* \"contracts/kontrat icinde kontrat example/firstContract.sol\":757:863  require(token.allowance(msg.sender, address(this)) >= value,\"Yeterli Allowence yok Approve yetkisi verin\") */\n      tag_63\n      jumpi\n      mload(0x40)\n      0x08c379a000000000000000000000000000000000000000000000000000000000\n      dup2\n      mstore\n      0x04\n      add\n      tag_64\n      swap1\n      tag_65\n      jump\t// in\n    tag_64:\n      mload(0x40)\n      dup1\n      swap2\n      sub\n      swap1\n      revert\n    tag_63:\n        /* \"contracts/kontrat icinde kontrat example/firstContract.sol\":873:878  token */\n      0x02\n      0x00\n      swap1\n      sload\n      swap1\n      0x0100\n      exp\n      swap1\n      div\n      0xffffffffffffffffffffffffffffffffffffffff\n      and\n        /* \"contracts/kontrat icinde kontrat example/firstContract.sol\":873:891  token.transferFrom */\n      0xffffffffffffffffffffffffffffffffffffffff\n      and\n      0x23b872dd\n        /* \"contracts/kontrat icinde kontrat example/firstContract.sol\":892:902  msg.sender */\n      caller\n        /* \"contracts/kontrat icinde kontrat example/firstContract.sol\":912:916  this */\n      address\n        /* \"contracts/kontrat icinde kontrat example/firstContract.sol\":919:924  value */\n      dup6\n        /* \"contracts/kontrat icinde kontrat example/firstContract.sol\":873:925  token.transferFrom(msg.sender, address(this), value) */\n      mload(0x40)\n      dup5\n      0xffffffff\n      and\n      0xe0\n      shl\n      dup2\n      mstore\n      0x04\n      add\n      tag_66\n      swap4\n      swap3\n      swap2\n      swap1\n      tag_67\n      jump\t// in\n    tag_66:\n      0x20\n      mload(0x40)\n      dup1\n      dup4\n      sub\n      dup2\n      0x00\n      dup8\n      gas\n      call\n      iszero\n      dup1\n      iszero\n      tag_69\n      jumpi\n      returndatacopy(0x00, 0x00, returndatasize)\n      revert(0x00, returndatasize)\n    tag_69:\n      pop\n      pop\n      pop\n      pop\n      mload(0x40)\n      returndatasize\n      not(0x1f)\n      0x1f\n      dup3\n      add\n      and\n      dup3\n      add\n      dup1\n      0x40\n      mstore\n      pop\n      dup2\n      add\n      swap1\n      tag_70\n      swap2\n      swap1\n      tag_49\n      jump\t// in\n    tag_70:\n      pop\n        /* \"contracts/kontrat icinde kontrat example/firstContract.sol\":963:968  value */\n      dup2\n        /* \"contracts/kontrat icinde kontrat example/firstContract.sol\":935:946  usersAmount */\n      0x00\n        /* \"contracts/kontrat icinde kontrat example/firstContract.sol\":935:959  usersAmount[_userWallet] */\n      0x00\n        /* \"contracts/kontrat icinde kontrat example/firstContract.sol\":947:958  _userWallet */\n      dup7\n        /* \"contracts/kontrat icinde kontrat example/firstContract.sol\":935:959  usersAmount[_userWallet] */\n      0xffffffffffffffffffffffffffffffffffffffff\n      and\n      0xffffffffffffffffffffffffffffffffffffffff\n      and\n      dup2\n      mstore\n      0x20\n      add\n      swap1\n      dup2\n      mstore\n      0x20\n      add\n      0x00\n      keccak256\n      0x00\n        /* \"contracts/kontrat icinde kontrat example/firstContract.sol\":935:968  usersAmount[_userWallet] += value */\n      dup3\n      dup3\n      sload\n      tag_71\n      swap2\n      swap1\n      tag_29\n      jump\t// in\n    tag_71:\n      swap3\n      pop\n      pop\n      dup2\n      swap1\n      sstore\n      pop\n        /* \"contracts/kontrat icinde kontrat example/firstContract.sol\":1036:1042  1 days */\n      0x015180\n        /* \"contracts/kontrat icinde kontrat example/firstContract.sol\":1028:1033  _days */\n      dup4\n        /* \"contracts/kontrat icinde kontrat example/firstContract.sol\":1028:1042  _days * 1 days */\n      tag_72\n      swap2\n      swap1\n      tag_73\n      jump\t// in\n    tag_72:\n        /* \"contracts/kontrat icinde kontrat example/firstContract.sol\":1010:1025  block.timestamp */\n      timestamp\n        /* \"contracts/kontrat icinde kontrat example/firstContract.sol\":1010:1042  block.timestamp + _days * 1 days */\n      tag_74\n      swap2\n      swap1\n      tag_29\n      jump\t// in\n    tag_74:\n        /* \"contracts/kontrat icinde kontrat example/firstContract.sol\":986:994  userDays */\n      0x01\n        /* \"contracts/kontrat icinde kontrat example/firstContract.sol\":986:1007  userDays[_userWallet] */\n      0x00\n        /* \"contracts/kontrat icinde kontrat example/firstContract.sol\":995:1006  _userWallet */\n      dup7\n        /* \"contracts/kontrat icinde kontrat example/firstContract.sol\":986:1007  userDays[_userWallet] */\n      0xffffffffffffffffffffffffffffffffffffffff\n      and\n      0xffffffffffffffffffffffffffffffffffffffff\n      and\n      dup2\n      mstore\n      0x20\n      add\n      swap1\n      dup2\n      mstore\n      0x20\n      add\n      0x00\n      keccak256\n        /* \"contracts/kontrat icinde kontrat example/firstContract.sol\":986:1042  userDays[_userWallet] = block.timestamp + _days * 1 days */\n      dup2\n      swap1\n      sstore\n      pop\n        /* \"contracts/kontrat icinde kontrat example/firstContract.sol\":1060:1064  true */\n      0x01\n        /* \"contracts/kontrat icinde kontrat example/firstContract.sol\":1053:1064  return true */\n      swap1\n      pop\n        /* \"contracts/kontrat icinde kontrat example/firstContract.sol\":651:1071  function Deposit(address _userWallet,uint _days,uint value) OnlyContract public  returns (bool) {... */\n      swap4\n      swap3\n      pop\n      pop\n      pop\n      jump\t// out\n        /* \"#utility.yul\":88:205   */\n    tag_76:\n        /* \"#utility.yul\":197:198   */\n      0x00\n        /* \"#utility.yul\":194:195   */\n      0x00\n        /* \"#utility.yul\":187:199   */\n      revert\n        /* \"#utility.yul\":334:460   */\n    tag_78:\n        /* \"#utility.yul\":371:378   */\n      0x00\n        /* \"#utility.yul\":411:453   */\n      0xffffffffffffffffffffffffffffffffffffffff\n        /* \"#utility.yul\":404:409   */\n      dup3\n        /* \"#utility.yul\":400:454   */\n      and\n        /* \"#utility.yul\":389:454   */\n      swap1\n      pop\n        /* \"#utility.yul\":334:460   */\n      swap2\n      swap1\n      pop\n      jump\t// out\n        /* \"#utility.yul\":466:562   */\n    tag_79:\n        /* \"#utility.yul\":503:510   */\n      0x00\n        /* \"#utility.yul\":532:556   */\n      tag_108\n        /* \"#utility.yul\":550:555   */\n      dup3\n        /* \"#utility.yul\":532:556   */\n      tag_78\n      jump\t// in\n    tag_108:\n        /* \"#utility.yul\":521:556   */\n      swap1\n      pop\n        /* \"#utility.yul\":466:562   */\n      swap2\n      swap1\n      pop\n      jump\t// out\n        /* \"#utility.yul\":568:690   */\n    tag_80:\n        /* \"#utility.yul\":641:665   */\n      tag_110\n        /* \"#utility.yul\":659:664   */\n      dup2\n        /* \"#utility.yul\":641:665   */\n      tag_79\n      jump\t// in\n    tag_110:\n        /* \"#utility.yul\":634:639   */\n      dup2\n        /* \"#utility.yul\":631:666   */\n      eq\n        /* \"#utility.yul\":621:684   */\n      tag_111\n      jumpi\n        /* \"#utility.yul\":680:681   */\n      0x00\n        /* \"#utility.yul\":677:678   */\n      0x00\n        /* \"#utility.yul\":670:682   */\n      revert\n        /* \"#utility.yul\":621:684   */\n    tag_111:\n        /* \"#utility.yul\":568:690   */\n      pop\n      jump\t// out\n        /* \"#utility.yul\":696:835   */\n    tag_81:\n        /* \"#utility.yul\":742:747   */\n      0x00\n        /* \"#utility.yul\":780:786   */\n      dup2\n        /* \"#utility.yul\":767:787   */\n      calldataload\n        /* \"#utility.yul\":758:787   */\n      swap1\n      pop\n        /* \"#utility.yul\":796:829   */\n      tag_113\n        /* \"#utility.yul\":823:828   */\n      dup2\n        /* \"#utility.yul\":796:829   */\n      tag_80\n      jump\t// in\n    tag_113:\n        /* \"#utility.yul\":696:835   */\n      swap3\n      swap2\n      pop\n      pop\n      jump\t// out\n        /* \"#utility.yul\":841:1315   */\n    tag_8:\n        /* \"#utility.yul\":909:915   */\n      0x00\n        /* \"#utility.yul\":917:923   */\n      0x00\n        /* \"#utility.yul\":966:968   */\n      0x40\n        /* \"#utility.yul\":954:963   */\n      dup4\n        /* \"#utility.yul\":945:952   */\n      dup6\n        /* \"#utility.yul\":941:964   */\n      sub\n        /* \"#utility.yul\":937:969   */\n      slt\n        /* \"#utility.yul\":934:1053   */\n      iszero\n      tag_115\n      jumpi\n        /* \"#utility.yul\":972:1051   */\n      tag_116\n      tag_76\n      jump\t// in\n    tag_116:\n        /* \"#utility.yul\":934:1053   */\n    tag_115:\n        /* \"#utility.yul\":1092:1093   */\n      0x00\n        /* \"#utility.yul\":1117:1170   */\n      tag_117\n        /* \"#utility.yul\":1162:1169   */\n      dup6\n        /* \"#utility.yul\":1153:1159   */\n      dup3\n        /* \"#utility.yul\":1142:1151   */\n      dup7\n        /* \"#utility.yul\":1138:1160   */\n      add\n        /* \"#utility.yul\":1117:1170   */\n      tag_81\n      jump\t// in\n    tag_117:\n        /* \"#utility.yul\":1107:1170   */\n      swap3\n      pop\n        /* \"#utility.yul\":1063:1180   */\n      pop\n        /* \"#utility.yul\":1219:1221   */\n      0x20\n        /* \"#utility.yul\":1245:1298   */\n      tag_118\n        /* \"#utility.yul\":1290:1297   */\n      dup6\n        /* \"#utility.yul\":1281:1287   */\n      dup3\n        /* \"#utility.yul\":1270:1279   */\n      dup7\n        /* \"#utility.yul\":1266:1288   */\n      add\n        /* \"#utility.yul\":1245:1298   */\n      tag_81\n      jump\t// in\n    tag_118:\n        /* \"#utility.yul\":1235:1298   */\n      swap2\n      pop\n        /* \"#utility.yul\":1190:1308   */\n      pop\n        /* \"#utility.yul\":841:1315   */\n      swap3\n      pop\n      swap3\n      swap1\n      pop\n      jump\t// out\n        /* \"#utility.yul\":1321:1411   */\n    tag_82:\n        /* \"#utility.yul\":1355:1362   */\n      0x00\n        /* \"#utility.yul\":1398:1403   */\n      dup2\n        /* \"#utility.yul\":1391:1404   */\n      iszero\n        /* \"#utility.yul\":1384:1405   */\n      iszero\n        /* \"#utility.yul\":1373:1405   */\n      swap1\n      pop\n        /* \"#utility.yul\":1321:1411   */\n      swap2\n      swap1\n      pop\n      jump\t// out\n        /* \"#utility.yul\":1417:1526   */\n    tag_83:\n        /* \"#utility.yul\":1498:1519   */\n      tag_121\n        /* \"#utility.yul\":1513:1518   */\n      dup2\n        /* \"#utility.yul\":1498:1519   */\n      tag_82\n      jump\t// in\n    tag_121:\n        /* \"#utility.yul\":1493:1496   */\n      dup3\n        /* \"#utility.yul\":1486:1520   */\n      mstore\n        /* \"#utility.yul\":1417:1526   */\n      pop\n      pop\n      jump\t// out\n        /* \"#utility.yul\":1532:1742   */\n    tag_11:\n        /* \"#utility.yul\":1619:1623   */\n      0x00\n        /* \"#utility.yul\":1657:1659   */\n      0x20\n        /* \"#utility.yul\":1646:1655   */\n      dup3\n        /* \"#utility.yul\":1642:1660   */\n      add\n        /* \"#utility.yul\":1634:1660   */\n      swap1\n      pop\n        /* \"#utility.yul\":1670:1735   */\n      tag_123\n        /* \"#utility.yul\":1732:1733   */\n      0x00\n        /* \"#utility.yul\":1721:1730   */\n      dup4\n        /* \"#utility.yul\":1717:1734   */\n      add\n        /* \"#utility.yul\":1708:1714   */\n      dup5\n        /* \"#utility.yul\":1670:1735   */\n      tag_83\n      jump\t// in\n    tag_123:\n        /* \"#utility.yul\":1532:1742   */\n      swap3\n      swap2\n      pop\n      pop\n      jump\t// out\n        /* \"#utility.yul\":1748:1825   */\n    tag_84:\n        /* \"#utility.yul\":1785:1792   */\n      0x00\n        /* \"#utility.yul\":1814:1819   */\n      dup2\n        /* \"#utility.yul\":1803:1819   */\n      swap1\n      pop\n        /* \"#utility.yul\":1748:1825   */\n      swap2\n      swap1\n      pop\n      jump\t// out\n        /* \"#utility.yul\":1831:1953   */\n    tag_85:\n        /* \"#utility.yul\":1904:1928   */\n      tag_126\n        /* \"#utility.yul\":1922:1927   */\n      dup2\n        /* \"#utility.yul\":1904:1928   */\n      tag_84\n      jump\t// in\n    tag_126:\n        /* \"#utility.yul\":1897:1902   */\n      dup2\n        /* \"#utility.yul\":1894:1929   */\n      eq\n        /* \"#utility.yul\":1884:1947   */\n      tag_127\n      jumpi\n        /* \"#utility.yul\":1943:1944   */\n      0x00\n        /* \"#utility.yul\":1940:1941   */\n      0x00\n        /* \"#utility.yul\":1933:1945   */\n      revert\n        /* \"#utility.yul\":1884:1947   */\n    tag_127:\n        /* \"#utility.yul\":1831:1953   */\n      pop\n      jump\t// out\n        /* \"#utility.yul\":1959:2098   */\n    tag_86:\n        /* \"#utility.yul\":2005:2010   */\n      0x00\n        /* \"#utility.yul\":2043:2049   */\n      dup2\n        /* \"#utility.yul\":2030:2050   */\n      calldataload\n        /* \"#utility.yul\":2021:2050   */\n      swap1\n      pop\n        /* \"#utility.yul\":2059:2092   */\n      tag_129\n        /* \"#utility.yul\":2086:2091   */\n      dup2\n        /* \"#utility.yul\":2059:2092   */\n      tag_85\n      jump\t// in\n    tag_129:\n        /* \"#utility.yul\":1959:2098   */\n      swap3\n      swap2\n      pop\n      pop\n      jump\t// out\n        /* \"#utility.yul\":2104:2578   */\n    tag_14:\n        /* \"#utility.yul\":2172:2178   */\n      0x00\n        /* \"#utility.yul\":2180:2186   */\n      0x00\n        /* \"#utility.yul\":2229:2231   */\n      0x40\n        /* \"#utility.yul\":2217:2226   */\n      dup4\n        /* \"#utility.yul\":2208:2215   */\n      dup6\n        /* \"#utility.yul\":2204:2227   */\n      sub\n        /* \"#utility.yul\":2200:2232   */\n      slt\n        /* \"#utility.yul\":2197:2316   */\n      iszero\n      tag_131\n      jumpi\n        /* \"#utility.yul\":2235:2314   */\n      tag_132\n      tag_76\n      jump\t// in\n    tag_132:\n        /* \"#utility.yul\":2197:2316   */\n    tag_131:\n        /* \"#utility.yul\":2355:2356   */\n      0x00\n        /* \"#utility.yul\":2380:2433   */\n      tag_133\n        /* \"#utility.yul\":2425:2432   */\n      dup6\n        /* \"#utility.yul\":2416:2422   */\n      dup3\n        /* \"#utility.yul\":2405:2414   */\n      dup7\n        /* \"#utility.yul\":2401:2423   */\n      add\n        /* \"#utility.yul\":2380:2433   */\n      tag_81\n      jump\t// in\n    tag_133:\n        /* \"#utility.yul\":2370:2433   */\n      swap3\n      pop\n        /* \"#utility.yul\":2326:2443   */\n      pop\n        /* \"#utility.yul\":2482:2484   */\n      0x20\n        /* \"#utility.yul\":2508:2561   */\n      tag_134\n        /* \"#utility.yul\":2553:2560   */\n      dup6\n        /* \"#utility.yul\":2544:2550   */\n      dup3\n        /* \"#utility.yul\":2533:2542   */\n      dup7\n        /* \"#utility.yul\":2529:2551   */\n      add\n        /* \"#utility.yul\":2508:2561   */\n      tag_86\n      jump\t// in\n    tag_134:\n        /* \"#utility.yul\":2498:2561   */\n      swap2\n      pop\n        /* \"#utility.yul\":2453:2571   */\n      pop\n        /* \"#utility.yul\":2104:2578   */\n      swap3\n      pop\n      swap3\n      swap1\n      pop\n      jump\t// out\n        /* \"#utility.yul\":2584:3203   */\n    tag_19:\n        /* \"#utility.yul\":2661:2667   */\n      0x00\n        /* \"#utility.yul\":2669:2675   */\n      0x00\n        /* \"#utility.yul\":2677:2683   */\n      0x00\n        /* \"#utility.yul\":2726:2728   */\n      0x60\n        /* \"#utility.yul\":2714:2723   */\n      dup5\n        /* \"#utility.yul\":2705:2712   */\n      dup7\n        /* \"#utility.yul\":2701:2724   */\n      sub\n        /* \"#utility.yul\":2697:2729   */\n      slt\n        /* \"#utility.yul\":2694:2813   */\n      iszero\n      tag_136\n      jumpi\n        /* \"#utility.yul\":2732:2811   */\n      tag_137\n      tag_76\n      jump\t// in\n    tag_137:\n        /* \"#utility.yul\":2694:2813   */\n    tag_136:\n        /* \"#utility.yul\":2852:2853   */\n      0x00\n        /* \"#utility.yul\":2877:2930   */\n      tag_138\n        /* \"#utility.yul\":2922:2929   */\n      dup7\n        /* \"#utility.yul\":2913:2919   */\n      dup3\n        /* \"#utility.yul\":2902:2911   */\n      dup8\n        /* \"#utility.yul\":2898:2920   */\n      add\n        /* \"#utility.yul\":2877:2930   */\n      tag_81\n      jump\t// in\n    tag_138:\n        /* \"#utility.yul\":2867:2930   */\n      swap4\n      pop\n        /* \"#utility.yul\":2823:2940   */\n      pop\n        /* \"#utility.yul\":2979:2981   */\n      0x20\n        /* \"#utility.yul\":3005:3058   */\n      tag_139\n        /* \"#utility.yul\":3050:3057   */\n      dup7\n        /* \"#utility.yul\":3041:3047   */\n      dup3\n        /* \"#utility.yul\":3030:3039   */\n      dup8\n        /* \"#utility.yul\":3026:3048   */\n      add\n        /* \"#utility.yul\":3005:3058   */\n      tag_86\n      jump\t// in\n    tag_139:\n        /* \"#utility.yul\":2995:3058   */\n      swap3\n      pop\n        /* \"#utility.yul\":2950:3068   */\n      pop\n        /* \"#utility.yul\":3107:3109   */\n      0x40\n        /* \"#utility.yul\":3133:3186   */\n      tag_140\n        /* \"#utility.yul\":3178:3185   */\n      dup7\n        /* \"#utility.yul\":3169:3175   */\n      dup3\n        /* \"#utility.yul\":3158:3167   */\n      dup8\n        /* \"#utility.yul\":3154:3176   */\n      add\n        /* \"#utility.yul\":3133:3186   */\n      tag_86\n      jump\t// in\n    tag_140:\n        /* \"#utility.yul\":3123:3186   */\n      swap2\n      pop\n        /* \"#utility.yul\":3078:3196   */\n      pop\n        /* \"#utility.yul\":2584:3203   */\n      swap3\n      pop\n      swap3\n      pop\n      swap3\n      jump\t// out\n        /* \"#utility.yul\":3209:3378   */\n    tag_87:\n        /* \"#utility.yul\":3293:3304   */\n      0x00\n        /* \"#utility.yul\":3327:3333   */\n      dup3\n        /* \"#utility.yul\":3322:3325   */\n      dup3\n        /* \"#utility.yul\":3315:3334   */\n      mstore\n        /* \"#utility.yul\":3367:3371   */\n      0x20\n        /* \"#utility.yul\":3362:3365   */\n      dup3\n        /* \"#utility.yul\":3358:3372   */\n      add\n        /* \"#utility.yul\":3343:3372   */\n      swap1\n      pop\n        /* \"#utility.yul\":3209:3378   */\n      swap3\n      swap2\n      pop\n      pop\n      jump\t// out\n        /* \"#utility.yul\":3384:3564   */\n    tag_88:\n        /* \"#utility.yul\":3524:3556   */\n      0x536164656365204b6f6e747261742049736c656d205961706162696c69720000\n        /* \"#utility.yul\":3520:3521   */\n      0x00\n        /* \"#utility.yul\":3512:3518   */\n      dup3\n        /* \"#utility.yul\":3508:3522   */\n      add\n        /* \"#utility.yul\":3501:3557   */\n      mstore\n        /* \"#utility.yul\":3384:3564   */\n      pop\n      jump\t// out\n        /* \"#utility.yul\":3570:3936   */\n    tag_89:\n        /* \"#utility.yul\":3712:3715   */\n      0x00\n        /* \"#utility.yul\":3733:3800   */\n      tag_144\n        /* \"#utility.yul\":3797:3799   */\n      0x1e\n        /* \"#utility.yul\":3792:3795   */\n      dup4\n        /* \"#utility.yul\":3733:3800   */\n      tag_87\n      jump\t// in\n    tag_144:\n        /* \"#utility.yul\":3726:3800   */\n      swap2\n      pop\n        /* \"#utility.yul\":3809:3902   */\n      tag_145\n        /* \"#utility.yul\":3898:3901   */\n      dup3\n        /* \"#utility.yul\":3809:3902   */\n      tag_88\n      jump\t// in\n    tag_145:\n        /* \"#utility.yul\":3927:3929   */\n      0x20\n        /* \"#utility.yul\":3922:3925   */\n      dup3\n        /* \"#utility.yul\":3918:3930   */\n      add\n        /* \"#utility.yul\":3911:3930   */\n      swap1\n      pop\n        /* \"#utility.yul\":3570:3936   */\n      swap2\n      swap1\n      pop\n      jump\t// out\n        /* \"#utility.yul\":3942:4361   */\n    tag_25:\n        /* \"#utility.yul\":4108:4112   */\n      0x00\n        /* \"#utility.yul\":4146:4148   */\n      0x20\n        /* \"#utility.yul\":4135:4144   */\n      dup3\n        /* \"#utility.yul\":4131:4149   */\n      add\n        /* \"#utility.yul\":4123:4149   */\n      swap1\n      pop\n        /* \"#utility.yul\":4195:4204   */\n      dup2\n        /* \"#utility.yul\":4189:4193   */\n      dup2\n        /* \"#utility.yul\":4185:4205   */\n      sub\n        /* \"#utility.yul\":4181:4182   */\n      0x00\n        /* \"#utility.yul\":4170:4179   */\n      dup4\n        /* \"#utility.yul\":4166:4183   */\n      add\n        /* \"#utility.yul\":4159:4206   */\n      mstore\n        /* \"#utility.yul\":4223:4354   */\n      tag_147\n        /* \"#utility.yul\":4349:4353   */\n      dup2\n        /* \"#utility.yul\":4223:4354   */\n      tag_89\n      jump\t// in\n    tag_147:\n        /* \"#utility.yul\":4215:4354   */\n      swap1\n      pop\n        /* \"#utility.yul\":3942:4361   */\n      swap2\n      swap1\n      pop\n      jump\t// out\n        /* \"#utility.yul\":4367:4547   */\n    tag_90:\n        /* \"#utility.yul\":4415:4492   */\n      0x4e487b7100000000000000000000000000000000000000000000000000000000\n        /* \"#utility.yul\":4412:4413   */\n      0x00\n        /* \"#utility.yul\":4405:4493   */\n      mstore\n        /* \"#utility.yul\":4512:4516   */\n      0x11\n        /* \"#utility.yul\":4509:4510   */\n      0x04\n        /* \"#utility.yul\":4502:4517   */\n      mstore\n        /* \"#utility.yul\":4536:4540   */\n      0x24\n        /* \"#utility.yul\":4533:4534   */\n      0x00\n        /* \"#utility.yul\":4526:4541   */\n      revert\n        /* \"#utility.yul\":4553:4744   */\n    tag_29:\n        /* \"#utility.yul\":4593:4596   */\n      0x00\n        /* \"#utility.yul\":4612:4632   */\n      tag_150\n        /* \"#utility.yul\":4630:4631   */\n      dup3\n        /* \"#utility.yul\":4612:4632   */\n      tag_84\n      jump\t// in\n    tag_150:\n        /* \"#utility.yul\":4607:4632   */\n      swap2\n      pop\n        /* \"#utility.yul\":4646:4666   */\n      tag_151\n        /* \"#utility.yul\":4664:4665   */\n      dup4\n        /* \"#utility.yul\":4646:4666   */\n      tag_84\n      jump\t// in\n    tag_151:\n        /* \"#utility.yul\":4641:4666   */\n      swap3\n      pop\n        /* \"#utility.yul\":4689:4690   */\n      dup3\n        /* \"#utility.yul\":4686:4687   */\n      dup3\n        /* \"#utility.yul\":4682:4691   */\n      add\n        /* \"#utility.yul\":4675:4691   */\n      swap1\n      pop\n        /* \"#utility.yul\":4710:4713   */\n      dup1\n        /* \"#utility.yul\":4707:4708   */\n      dup3\n        /* \"#utility.yul\":4704:4714   */\n      gt\n        /* \"#utility.yul\":4701:4737   */\n      iszero\n      tag_152\n      jumpi\n        /* \"#utility.yul\":4717:4735   */\n      tag_153\n      tag_90\n      jump\t// in\n    tag_153:\n        /* \"#utility.yul\":4701:4737   */\n    tag_152:\n        /* \"#utility.yul\":4553:4744   */\n      swap3\n      swap2\n      pop\n      pop\n      jump\t// out\n        /* \"#utility.yul\":4750:4925   */\n    tag_91:\n        /* \"#utility.yul\":4890:4917   */\n      0x43656b696d2054617269686920446168612047656c6d65646900000000000000\n        /* \"#utility.yul\":4886:4887   */\n      0x00\n        /* \"#utility.yul\":4878:4884   */\n      dup3\n        /* \"#utility.yul\":4874:4888   */\n      add\n        /* \"#utility.yul\":4867:4918   */\n      mstore\n        /* \"#utility.yul\":4750:4925   */\n      pop\n      jump\t// out\n        /* \"#utility.yul\":4931:5297   */\n    tag_92:\n        /* \"#utility.yul\":5073:5076   */\n      0x00\n        /* \"#utility.yul\":5094:5161   */\n      tag_156\n        /* \"#utility.yul\":5158:5160   */\n      0x19\n        /* \"#utility.yul\":5153:5156   */\n      dup4\n        /* \"#utility.yul\":5094:5161   */\n      tag_87\n      jump\t// in\n    tag_156:\n        /* \"#utility.yul\":5087:5161   */\n      swap2\n      pop\n        /* \"#utility.yul\":5170:5263   */\n      tag_157\n        /* \"#utility.yul\":5259:5262   */\n      dup3\n        /* \"#utility.yul\":5170:5263   */\n      tag_91\n      jump\t// in\n    tag_157:\n        /* \"#utility.yul\":5288:5290   */\n      0x20\n        /* \"#utility.yul\":5283:5286   */\n      dup3\n        /* \"#utility.yul\":5279:5291   */\n      add\n        /* \"#utility.yul\":5272:5291   */\n      swap1\n      pop\n        /* \"#utility.yul\":4931:5297   */\n      swap2\n      swap1\n      pop\n      jump\t// out\n        /* \"#utility.yul\":5303:5722   */\n    tag_36:\n        /* \"#utility.yul\":5469:5473   */\n      0x00\n        /* \"#utility.yul\":5507:5509   */\n      0x20\n        /* \"#utility.yul\":5496:5505   */\n      dup3\n        /* \"#utility.yul\":5492:5510   */\n      add\n        /* \"#utility.yul\":5484:5510   */\n      swap1\n      pop\n        /* \"#utility.yul\":5556:5565   */\n      dup2\n        /* \"#utility.yul\":5550:5554   */\n      dup2\n        /* \"#utility.yul\":5546:5566   */\n      sub\n        /* \"#utility.yul\":5542:5543   */\n      0x00\n        /* \"#utility.yul\":5531:5540   */\n      dup4\n        /* \"#utility.yul\":5527:5544   */\n      add\n        /* \"#utility.yul\":5520:5567   */\n      mstore\n        /* \"#utility.yul\":5584:5715   */\n      tag_159\n        /* \"#utility.yul\":5710:5714   */\n      dup2\n        /* \"#utility.yul\":5584:5715   */\n      tag_92\n      jump\t// in\n    tag_159:\n        /* \"#utility.yul\":5576:5715   */\n      swap1\n      pop\n        /* \"#utility.yul\":5303:5722   */\n      swap2\n      swap1\n      pop\n      jump\t// out\n        /* \"#utility.yul\":5728:5893   */\n    tag_93:\n        /* \"#utility.yul\":5868:5885   */\n      0x596574657273697a204d696b7461720000000000000000000000000000000000\n        /* \"#utility.yul\":5864:5865   */\n      0x00\n        /* \"#utility.yul\":5856:5862   */\n      dup3\n        /* \"#utility.yul\":5852:5866   */\n      add\n        /* \"#utility.yul\":5845:5886   */\n      mstore\n        /* \"#utility.yul\":5728:5893   */\n      pop\n      jump\t// out\n        /* \"#utility.yul\":5899:6265   */\n    tag_94:\n        /* \"#utility.yul\":6041:6044   */\n      0x00\n        /* \"#utility.yul\":6062:6129   */\n      tag_162\n        /* \"#utility.yul\":6126:6128   */\n      0x0f\n        /* \"#utility.yul\":6121:6124   */\n      dup4\n        /* \"#utility.yul\":6062:6129   */\n      tag_87\n      jump\t// in\n    tag_162:\n        /* \"#utility.yul\":6055:6129   */\n      swap2\n      pop\n        /* \"#utility.yul\":6138:6231   */\n      tag_163\n        /* \"#utility.yul\":6227:6230   */\n      dup3\n        /* \"#utility.yul\":6138:6231   */\n      tag_93\n      jump\t// in\n    tag_163:\n        /* \"#utility.yul\":6256:6258   */\n      0x20\n        /* \"#utility.yul\":6251:6254   */\n      dup3\n        /* \"#utility.yul\":6247:6259   */\n      add\n        /* \"#utility.yul\":6240:6259   */\n      swap1\n      pop\n        /* \"#utility.yul\":5899:6265   */\n      swap2\n      swap1\n      pop\n      jump\t// out\n        /* \"#utility.yul\":6271:6690   */\n    tag_43:\n        /* \"#utility.yul\":6437:6441   */\n      0x00\n        /* \"#utility.yul\":6475:6477   */\n      0x20\n        /* \"#utility.yul\":6464:6473   */\n      dup3\n        /* \"#utility.yul\":6460:6478   */\n      add\n        /* \"#utility.yul\":6452:6478   */\n      swap1\n      pop\n        /* \"#utility.yul\":6524:6533   */\n      dup2\n        /* \"#utility.yul\":6518:6522   */\n      dup2\n        /* \"#utility.yul\":6514:6534   */\n      sub\n        /* \"#utility.yul\":6510:6511   */\n      0x00\n        /* \"#utility.yul\":6499:6508   */\n      dup4\n        /* \"#utility.yul\":6495:6512   */\n      add\n        /* \"#utility.yul\":6488:6535   */\n      mstore\n        /* \"#utility.yul\":6552:6683   */\n      tag_165\n        /* \"#utility.yul\":6678:6682   */\n      dup2\n        /* \"#utility.yul\":6552:6683   */\n      tag_94\n      jump\t// in\n    tag_165:\n        /* \"#utility.yul\":6544:6683   */\n      swap1\n      pop\n        /* \"#utility.yul\":6271:6690   */\n      swap2\n      swap1\n      pop\n      jump\t// out\n        /* \"#utility.yul\":6696:6814   */\n    tag_95:\n        /* \"#utility.yul\":6783:6807   */\n      tag_167\n        /* \"#utility.yul\":6801:6806   */\n      dup2\n        /* \"#utility.yul\":6783:6807   */\n      tag_79\n      jump\t// in\n    tag_167:\n        /* \"#utility.yul\":6778:6781   */\n      dup3\n        /* \"#utility.yul\":6771:6808   */\n      mstore\n        /* \"#utility.yul\":6696:6814   */\n      pop\n      pop\n      jump\t// out\n        /* \"#utility.yul\":6820:6938   */\n    tag_96:\n        /* \"#utility.yul\":6907:6931   */\n      tag_169\n        /* \"#utility.yul\":6925:6930   */\n      dup2\n        /* \"#utility.yul\":6907:6931   */\n      tag_84\n      jump\t// in\n    tag_169:\n        /* \"#utility.yul\":6902:6905   */\n      dup3\n        /* \"#utility.yul\":6895:6932   */\n      mstore\n        /* \"#utility.yul\":6820:6938   */\n      pop\n      pop\n      jump\t// out\n        /* \"#utility.yul\":6944:7276   */\n    tag_45:\n        /* \"#utility.yul\":7065:7069   */\n      0x00\n        /* \"#utility.yul\":7103:7105   */\n      0x40\n        /* \"#utility.yul\":7092:7101   */\n      dup3\n        /* \"#utility.yul\":7088:7106   */\n      add\n        /* \"#utility.yul\":7080:7106   */\n      swap1\n      pop\n        /* \"#utility.yul\":7116:7187   */\n      tag_171\n        /* \"#utility.yul\":7184:7185   */\n      0x00\n        /* \"#utility.yul\":7173:7182   */\n      dup4\n        /* \"#utility.yul\":7169:7186   */\n      add\n        /* \"#utility.yul\":7160:7166   */\n      dup6\n        /* \"#utility.yul\":7116:7187   */\n      tag_95\n      jump\t// in\n    tag_171:\n        /* \"#utility.yul\":7197:7269   */\n      tag_172\n        /* \"#utility.yul\":7265:7267   */\n      0x20\n        /* \"#utility.yul\":7254:7263   */\n      dup4\n        /* \"#utility.yul\":7250:7268   */\n      add\n        /* \"#utility.yul\":7241:7247   */\n      dup5\n        /* \"#utility.yul\":7197:7269   */\n      tag_96\n      jump\t// in\n    tag_172:\n        /* \"#utility.yul\":6944:7276   */\n      swap4\n      swap3\n      pop\n      pop\n      pop\n      jump\t// out\n        /* \"#utility.yul\":7282:7398   */\n    tag_97:\n        /* \"#utility.yul\":7352:7373   */\n      tag_174\n        /* \"#utility.yul\":7367:7372   */\n      dup2\n        /* \"#utility.yul\":7352:7373   */\n      tag_82\n      jump\t// in\n    tag_174:\n        /* \"#utility.yul\":7345:7350   */\n      dup2\n        /* \"#utility.yul\":7342:7374   */\n      eq\n        /* \"#utility.yul\":7332:7392   */\n      tag_175\n      jumpi\n        /* \"#utility.yul\":7388:7389   */\n      0x00\n        /* \"#utility.yul\":7385:7386   */\n      0x00\n        /* \"#utility.yul\":7378:7390   */\n      revert\n        /* \"#utility.yul\":7332:7392   */\n    tag_175:\n        /* \"#utility.yul\":7282:7398   */\n      pop\n      jump\t// out\n        /* \"#utility.yul\":7404:7541   */\n    tag_98:\n        /* \"#utility.yul\":7458:7463   */\n      0x00\n        /* \"#utility.yul\":7489:7495   */\n      dup2\n        /* \"#utility.yul\":7483:7496   */\n      mload\n        /* \"#utility.yul\":7474:7496   */\n      swap1\n      pop\n        /* \"#utility.yul\":7505:7535   */\n      tag_177\n        /* \"#utility.yul\":7529:7534   */\n      dup2\n        /* \"#utility.yul\":7505:7535   */\n      tag_97\n      jump\t// in\n    tag_177:\n        /* \"#utility.yul\":7404:7541   */\n      swap3\n      swap2\n      pop\n      pop\n      jump\t// out\n        /* \"#utility.yul\":7547:7892   */\n    tag_49:\n        /* \"#utility.yul\":7614:7620   */\n      0x00\n        /* \"#utility.yul\":7663:7665   */\n      0x20\n        /* \"#utility.yul\":7651:7660   */\n      dup3\n        /* \"#utility.yul\":7642:7649   */\n      dup5\n        /* \"#utility.yul\":7638:7661   */\n      sub\n        /* \"#utility.yul\":7634:7666   */\n      slt\n        /* \"#utility.yul\":7631:7750   */\n      iszero\n      tag_179\n      jumpi\n        /* \"#utility.yul\":7669:7748   */\n      tag_180\n      tag_76\n      jump\t// in\n    tag_180:\n        /* \"#utility.yul\":7631:7750   */\n    tag_179:\n        /* \"#utility.yul\":7789:7790   */\n      0x00\n        /* \"#utility.yul\":7814:7875   */\n      tag_181\n        /* \"#utility.yul\":7867:7874   */\n      dup5\n        /* \"#utility.yul\":7858:7864   */\n      dup3\n        /* \"#utility.yul\":7847:7856   */\n      dup6\n        /* \"#utility.yul\":7843:7865   */\n      add\n        /* \"#utility.yul\":7814:7875   */\n      tag_98\n      jump\t// in\n    tag_181:\n        /* \"#utility.yul\":7804:7875   */\n      swap2\n      pop\n        /* \"#utility.yul\":7760:7885   */\n      pop\n        /* \"#utility.yul\":7547:7892   */\n      swap3\n      swap2\n      pop\n      pop\n      jump\t// out\n        /* \"#utility.yul\":7898:8092   */\n    tag_51:\n        /* \"#utility.yul\":7938:7942   */\n      0x00\n        /* \"#utility.yul\":7958:7978   */\n      tag_183\n        /* \"#utility.yul\":7976:7977   */\n      dup3\n        /* \"#utility.yul\":7958:7978   */\n      tag_84\n      jump\t// in\n    tag_183:\n        /* \"#utility.yul\":7953:7978   */\n      swap2\n      pop\n        /* \"#utility.yul\":7992:8012   */\n      tag_184\n        /* \"#utility.yul\":8010:8011   */\n      dup4\n        /* \"#utility.yul\":7992:8012   */\n      tag_84\n      jump\t// in\n    tag_184:\n        /* \"#utility.yul\":7987:8012   */\n      swap3\n      pop\n        /* \"#utility.yul\":8036:8037   */\n      dup3\n        /* \"#utility.yul\":8033:8034   */\n      dup3\n        /* \"#utility.yul\":8029:8038   */\n      sub\n        /* \"#utility.yul\":8021:8038   */\n      swap1\n      pop\n        /* \"#utility.yul\":8060:8061   */\n      dup2\n        /* \"#utility.yul\":8054:8058   */\n      dup2\n        /* \"#utility.yul\":8051:8062   */\n      gt\n        /* \"#utility.yul\":8048:8085   */\n      iszero\n      tag_185\n      jumpi\n        /* \"#utility.yul\":8065:8083   */\n      tag_186\n      tag_90\n      jump\t// in\n    tag_186:\n        /* \"#utility.yul\":8048:8085   */\n    tag_185:\n        /* \"#utility.yul\":7898:8092   */\n      swap3\n      swap2\n      pop\n      pop\n      jump\t// out\n        /* \"#utility.yul\":8098:8430   */\n    tag_58:\n        /* \"#utility.yul\":8219:8223   */\n      0x00\n        /* \"#utility.yul\":8257:8259   */\n      0x40\n        /* \"#utility.yul\":8246:8255   */\n      dup3\n        /* \"#utility.yul\":8242:8260   */\n      add\n        /* \"#utility.yul\":8234:8260   */\n      swap1\n      pop\n        /* \"#utility.yul\":8270:8341   */\n      tag_188\n        /* \"#utility.yul\":8338:8339   */\n      0x00\n        /* \"#utility.yul\":8327:8336   */\n      dup4\n        /* \"#utility.yul\":8323:8340   */\n      add\n        /* \"#utility.yul\":8314:8320   */\n      dup6\n        /* \"#utility.yul\":8270:8341   */\n      tag_95\n      jump\t// in\n    tag_188:\n        /* \"#utility.yul\":8351:8423   */\n      tag_189\n        /* \"#utility.yul\":8419:8421   */\n      0x20\n        /* \"#utility.yul\":8408:8417   */\n      dup4\n        /* \"#utility.yul\":8404:8422   */\n      add\n        /* \"#utility.yul\":8395:8401   */\n      dup5\n        /* \"#utility.yul\":8351:8423   */\n      tag_95\n      jump\t// in\n    tag_189:\n        /* \"#utility.yul\":8098:8430   */\n      swap4\n      swap3\n      pop\n      pop\n      pop\n      jump\t// out\n        /* \"#utility.yul\":8436:8579   */\n    tag_99:\n        /* \"#utility.yul\":8493:8498   */\n      0x00\n        /* \"#utility.yul\":8524:8530   */\n      dup2\n        /* \"#utility.yul\":8518:8531   */\n      mload\n        /* \"#utility.yul\":8509:8531   */\n      swap1\n      pop\n        /* \"#utility.yul\":8540:8573   */\n      tag_191\n        /* \"#utility.yul\":8567:8572   */\n      dup2\n        /* \"#utility.yul\":8540:8573   */\n      tag_85\n      jump\t// in\n    tag_191:\n        /* \"#utility.yul\":8436:8579   */\n      swap3\n      swap2\n      pop\n      pop\n      jump\t// out\n        /* \"#utility.yul\":8585:8936   */\n    tag_62:\n        /* \"#utility.yul\":8655:8661   */\n      0x00\n        /* \"#utility.yul\":8704:8706   */\n      0x20\n        /* \"#utility.yul\":8692:8701   */\n      dup3\n        /* \"#utility.yul\":8683:8690   */\n      dup5\n        /* \"#utility.yul\":8679:8702   */\n      sub\n        /* \"#utility.yul\":8675:8707   */\n      slt\n        /* \"#utility.yul\":8672:8791   */\n      iszero\n      tag_193\n      jumpi\n        /* \"#utility.yul\":8710:8789   */\n      tag_194\n      tag_76\n      jump\t// in\n    tag_194:\n        /* \"#utility.yul\":8672:8791   */\n    tag_193:\n        /* \"#utility.yul\":8830:8831   */\n      0x00\n        /* \"#utility.yul\":8855:8919   */\n      tag_195\n        /* \"#utility.yul\":8911:8918   */\n      dup5\n        /* \"#utility.yul\":8902:8908   */\n      dup3\n        /* \"#utility.yul\":8891:8900   */\n      dup6\n        /* \"#utility.yul\":8887:8909   */\n      add\n        /* \"#utility.yul\":8855:8919   */\n      tag_99\n      jump\t// in\n    tag_195:\n        /* \"#utility.yul\":8845:8919   */\n      swap2\n      pop\n        /* \"#utility.yul\":8801:8929   */\n      pop\n        /* \"#utility.yul\":8585:8936   */\n      swap3\n      swap2\n      pop\n      pop\n      jump\t// out\n        /* \"#utility.yul\":8942:9172   */\n    tag_100:\n        /* \"#utility.yul\":9082:9116   */\n      0x59657465726c6920416c6c6f77656e636520796f6b20417070726f7665207965\n        /* \"#utility.yul\":9078:9079   */\n      0x00\n        /* \"#utility.yul\":9070:9076   */\n      dup3\n        /* \"#utility.yul\":9066:9080   */\n      add\n        /* \"#utility.yul\":9059:9117   */\n      mstore\n        /* \"#utility.yul\":9151:9164   */\n      0x746b69736920766572696e000000000000000000000000000000000000000000\n        /* \"#utility.yul\":9146:9148   */\n      0x20\n        /* \"#utility.yul\":9138:9144   */\n      dup3\n        /* \"#utility.yul\":9134:9149   */\n      add\n        /* \"#utility.yul\":9127:9165   */\n      mstore\n        /* \"#utility.yul\":8942:9172   */\n      pop\n      jump\t// out\n        /* \"#utility.yul\":9178:9544   */\n    tag_101:\n        /* \"#utility.yul\":9320:9323   */\n      0x00\n        /* \"#utility.yul\":9341:9408   */\n      tag_198\n        /* \"#utility.yul\":9405:9407   */\n      0x2b\n        /* \"#utility.yul\":9400:9403   */\n      dup4\n        /* \"#utility.yul\":9341:9408   */\n      tag_87\n      jump\t// in\n    tag_198:\n        /* \"#utility.yul\":9334:9408   */\n      swap2\n      pop\n        /* \"#utility.yul\":9417:9510   */\n      tag_199\n        /* \"#utility.yul\":9506:9509   */\n      dup3\n        /* \"#utility.yul\":9417:9510   */\n      tag_100\n      jump\t// in\n    tag_199:\n        /* \"#utility.yul\":9535:9537   */\n      0x40\n        /* \"#utility.yul\":9530:9533   */\n      dup3\n        /* \"#utility.yul\":9526:9538   */\n      add\n        /* \"#utility.yul\":9519:9538   */\n      swap1\n      pop\n        /* \"#utility.yul\":9178:9544   */\n      swap2\n      swap1\n      pop\n      jump\t// out\n        /* \"#utility.yul\":9550:9969   */\n    tag_65:\n        /* \"#utility.yul\":9716:9720   */\n      0x00\n        /* \"#utility.yul\":9754:9756   */\n      0x20\n        /* \"#utility.yul\":9743:9752   */\n      dup3\n        /* \"#utility.yul\":9739:9757   */\n      add\n        /* \"#utility.yul\":9731:9757   */\n      swap1\n      pop\n        /* \"#utility.yul\":9803:9812   */\n      dup2\n        /* \"#utility.yul\":9797:9801   */\n      dup2\n        /* \"#utility.yul\":9793:9813   */\n      sub\n        /* \"#utility.yul\":9789:9790   */\n      0x00\n        /* \"#utility.yul\":9778:9787   */\n      dup4\n        /* \"#utility.yul\":9774:9791   */\n      add\n        /* \"#utility.yul\":9767:9814   */\n      mstore\n        /* \"#utility.yul\":9831:9962   */\n      tag_201\n        /* \"#utility.yul\":9957:9961   */\n      dup2\n        /* \"#utility.yul\":9831:9962   */\n      tag_101\n      jump\t// in\n    tag_201:\n        /* \"#utility.yul\":9823:9962   */\n      swap1\n      pop\n        /* \"#utility.yul\":9550:9969   */\n      swap2\n      swap1\n      pop\n      jump\t// out\n        /* \"#utility.yul\":9975:10417   */\n    tag_67:\n        /* \"#utility.yul\":10124:10128   */\n      0x00\n        /* \"#utility.yul\":10162:10164   */\n      0x60\n        /* \"#utility.yul\":10151:10160   */\n      dup3\n        /* \"#utility.yul\":10147:10165   */\n      add\n        /* \"#utility.yul\":10139:10165   */\n      swap1\n      pop\n        /* \"#utility.yul\":10175:10246   */\n      tag_203\n        /* \"#utility.yul\":10243:10244   */\n      0x00\n        /* \"#utility.yul\":10232:10241   */\n      dup4\n        /* \"#utility.yul\":10228:10245   */\n      add\n        /* \"#utility.yul\":10219:10225   */\n      dup7\n        /* \"#utility.yul\":10175:10246   */\n      tag_95\n      jump\t// in\n    tag_203:\n        /* \"#utility.yul\":10256:10328   */\n      tag_204\n        /* \"#utility.yul\":10324:10326   */\n      0x20\n        /* \"#utility.yul\":10313:10322   */\n      dup4\n        /* \"#utility.yul\":10309:10327   */\n      add\n        /* \"#utility.yul\":10300:10306   */\n      dup6\n        /* \"#utility.yul\":10256:10328   */\n      tag_95\n      jump\t// in\n    tag_204:\n        /* \"#utility.yul\":10338:10410   */\n      tag_205\n        /* \"#utility.yul\":10406:10408   */\n      0x40\n        /* \"#utility.yul\":10395:10404   */\n      dup4\n        /* \"#utility.yul\":10391:10409   */\n      add\n        /* \"#utility.yul\":10382:10388   */\n      dup5\n        /* \"#utility.yul\":10338:10410   */\n      tag_96\n      jump\t// in\n    tag_205:\n        /* \"#utility.yul\":9975:10417   */\n      swap5\n      swap4\n      pop\n      pop\n      pop\n      pop\n      jump\t// out\n        /* \"#utility.yul\":10423:10833   */\n    tag_73:\n        /* \"#utility.yul\":10463:10470   */\n      0x00\n        /* \"#utility.yul\":10486:10506   */\n      tag_207\n        /* \"#utility.yul\":10504:10505   */\n      dup3\n        /* \"#utility.yul\":10486:10506   */\n      tag_84\n      jump\t// in\n    tag_207:\n        /* \"#utility.yul\":10481:10506   */\n      swap2\n      pop\n        /* \"#utility.yul\":10520:10540   */\n      tag_208\n        /* \"#utility.yul\":10538:10539   */\n      dup4\n        /* \"#utility.yul\":10520:10540   */\n      tag_84\n      jump\t// in\n    tag_208:\n        /* \"#utility.yul\":10515:10540   */\n      swap3\n      pop\n        /* \"#utility.yul\":10575:10576   */\n      dup3\n        /* \"#utility.yul\":10572:10573   */\n      dup3\n        /* \"#utility.yul\":10568:10577   */\n      mul\n        /* \"#utility.yul\":10597:10627   */\n      tag_209\n        /* \"#utility.yul\":10615:10626   */\n      dup2\n        /* \"#utility.yul\":10597:10627   */\n      tag_84\n      jump\t// in\n    tag_209:\n        /* \"#utility.yul\":10586:10627   */\n      swap2\n      pop\n        /* \"#utility.yul\":10776:10777   */\n      dup3\n        /* \"#utility.yul\":10767:10774   */\n      dup3\n        /* \"#utility.yul\":10763:10778   */\n      div\n        /* \"#utility.yul\":10760:10761   */\n      dup5\n        /* \"#utility.yul\":10757:10779   */\n      eq\n        /* \"#utility.yul\":10737:10738   */\n      dup4\n        /* \"#utility.yul\":10730:10739   */\n      iszero\n        /* \"#utility.yul\":10710:10793   */\n      or\n        /* \"#utility.yul\":10687:10826   */\n      tag_210\n      jumpi\n        /* \"#utility.yul\":10806:10824   */\n      tag_211\n      tag_90\n      jump\t// in\n    tag_211:\n        /* \"#utility.yul\":10687:10826   */\n    tag_210:\n        /* \"#utility.yul\":10471:10833   */\n      pop\n        /* \"#utility.yul\":10423:10833   */\n      swap3\n      swap2\n      pop\n      pop\n      jump\t// out\n\n    auxdata: 0xa2646970667358221220ccc800882c3b50cb00b204c0753a7d25a824d928f618917f1782c4ca853a10b964736f6c634300081b0033\n}\n",
				"bytecode": {
					"linkReferences": {},
					"object": "608060405234801561000f575f5ffd5b5060405161126938038061126983398181016040528101906100319190610116565b8060025f6101000a81548173ffffffffffffffffffffffffffffffffffffffff021916908373ffffffffffffffffffffffffffffffffffffffff1602179055508160035f6101000a81548173ffffffffffffffffffffffffffffffffffffffff021916908373ffffffffffffffffffffffffffffffffffffffff1602179055505050610154565b5f5ffd5b5f73ffffffffffffffffffffffffffffffffffffffff82169050919050565b5f6100e5826100bc565b9050919050565b6100f5816100db565b81146100ff575f5ffd5b50565b5f81519050610110816100ec565b92915050565b5f5f6040838503121561012c5761012b6100b8565b5b5f61013985828601610102565b925050602061014a85828601610102565b9150509250929050565b611108806101615f395ff3fe608060405234801561000f575f5ffd5b506004361061003f575f3560e01c80635c48652814610043578063884edad91461007357806390890809146100a3575b5f5ffd5b61005d60048036038101906100589190610bc1565b6100d3565b60405161006a9190610c19565b60405180910390f35b61008d60048036038101906100889190610c65565b610552565b60405161009a9190610c19565b60405180910390f35b6100bd60048036038101906100b89190610ca3565b61089f565b6040516100ca9190610c19565b60405180910390f35b5f60035f9054906101000a900473ffffffffffffffffffffffffffffffffffffffff1673ffffffffffffffffffffffffffffffffffffffff163373ffffffffffffffffffffffffffffffffffffffff1614610163576040517f08c379a000000000000000000000000000000000000000000000000000000000815260040161015a90610d4d565b60405180910390fd5b5f5f5f8473ffffffffffffffffffffffffffffffffffffffff1673ffffffffffffffffffffffffffffffffffffffff1681526020019081526020015f20541115610338575f5f8473ffffffffffffffffffffffffffffffffffffffff1673ffffffffffffffffffffffffffffffffffffffff1681526020019081526020015f20545f5f8473ffffffffffffffffffffffffffffffffffffffff1673ffffffffffffffffffffffffffffffffffffffff1681526020019081526020015f205f82825461022e9190610d98565b9250508190555060015f8473ffffffffffffffffffffffffffffffffffffffff1673ffffffffffffffffffffffffffffffffffffffff1681526020019081526020015f205460015f8473ffffffffffffffffffffffffffffffffffffffff1673ffffffffffffffffffffffffffffffffffffffff1681526020019081526020015f20819055505f5f8473ffffffffffffffffffffffffffffffffffffffff1673ffffffffffffffffffffffffffffffffffffffff1681526020019081526020015f205f905560015f8473ffffffffffffffffffffffffffffffffffffffff1673ffffffffffffffffffffffffffffffffffffffff1681526020019081526020015f205f90556104c9565b5f5f8473ffffffffffffffffffffffffffffffffffffffff1673ffffffffffffffffffffffffffffffffffffffff1681526020019081526020015f20545f5f8473ffffffffffffffffffffffffffffffffffffffff1673ffffffffffffffffffffffffffffffffffffffff1681526020019081526020015f205f8282546103bf9190610d98565b9250508190555060015f8473ffffffffffffffffffffffffffffffffffffffff1673ffffffffffffffffffffffffffffffffffffffff1681526020019081526020015f205460015f8473ffffffffffffffffffffffffffffffffffffffff1673ffffffffffffffffffffffffffffffffffffffff1681526020019081526020015f205410156104c85760015f8473ffffffffffffffffffffffffffffffffffffffff1673ffffffffffffffffffffffffffffffffffffffff1681526020019081526020015f205460015f8473ffffffffffffffffffffffffffffffffffffffff1673ffffffffffffffffffffffffffffffffffffffff1681526020019081526020015f20819055505b5b5f5f8473ffffffffffffffffffffffffffffffffffffffff1673ffffffffffffffffffffffffffffffffffffffff1681526020019081526020015f205f905560015f8473ffffffffffffffffffffffffffffffffffffffff1673ffffffffffffffffffffffffffffffffffffffff1681526020019081526020015f205f90556001905092915050565b5f8260015f8273ffffffffffffffffffffffffffffffffffffffff1673ffffffffffffffffffffffffffffffffffffffff1681526020019081526020015f20544210156105d4576040517f08c379a00000000000000000000000000000000000000000000000000000000081526004016105cb90610e15565b60405180910390fd5b60035f9054906101000a900473ffffffffffffffffffffffffffffffffffffffff1673ffffffffffffffffffffffffffffffffffffffff163373ffffffffffffffffffffffffffffffffffffffff1614610663576040517f08c379a000000000000000000000000000000000000000000000000000000000815260040161065a90610d4d565b60405180910390fd5b825f5f8673ffffffffffffffffffffffffffffffffffffffff1673ffffffffffffffffffffffffffffffffffffffff1681526020019081526020015f205410156106e2576040517f08c379a00000000000000000000000000000000000000000000000000000000081526004016106d990610e7d565b60405180910390fd5b60025f9054906101000a900473ffffffffffffffffffffffffffffffffffffffff1673ffffffffffffffffffffffffffffffffffffffff1663a9059cbb85856040518363ffffffff1660e01b815260040161073e929190610eb9565b6020604051808303815f875af115801561075a573d5f5f3e3d5ffd5b505050506040513d601f19601f8201168201806040525081019061077e9190610f0a565b50825f5f8673ffffffffffffffffffffffffffffffffffffffff1673ffffffffffffffffffffffffffffffffffffffff1681526020019081526020015f205f8282546107ca9190610f35565b925050819055505f5f5f8673ffffffffffffffffffffffffffffffffffffffff1673ffffffffffffffffffffffffffffffffffffffff1681526020019081526020015f2054036108945760015f8573ffffffffffffffffffffffffffffffffffffffff1673ffffffffffffffffffffffffffffffffffffffff1681526020019081526020015f205f90555f5f8573ffffffffffffffffffffffffffffffffffffffff1673ffffffffffffffffffffffffffffffffffffffff1681526020019081526020015f205f90555b600191505092915050565b5f60035f9054906101000a900473ffffffffffffffffffffffffffffffffffffffff1673ffffffffffffffffffffffffffffffffffffffff163373ffffffffffffffffffffffffffffffffffffffff161461092f576040517f08c379a000000000000000000000000000000000000000000000000000000000815260040161092690610d4d565b60405180910390fd5b8160025f9054906101000a900473ffffffffffffffffffffffffffffffffffffffff1673ffffffffffffffffffffffffffffffffffffffff1663dd62ed3e33306040518363ffffffff1660e01b815260040161098c929190610f68565b602060405180830381865afa1580156109a7573d5f5f3e3d5ffd5b505050506040513d601f19601f820116820180604052508101906109cb9190610fa3565b1015610a0c576040517f08c379a0000000000000000000000000000000000000000000000000000000008152600401610a039061103e565b60405180910390fd5b60025f9054906101000a900473ffffffffffffffffffffffffffffffffffffffff1673ffffffffffffffffffffffffffffffffffffffff166323b872dd3330856040518463ffffffff1660e01b8152600401610a6a9392919061105c565b6020604051808303815f875af1158015610a86573d5f5f3e3d5ffd5b505050506040513d601f19601f82011682018060405250810190610aaa9190610f0a565b50815f5f8673ffffffffffffffffffffffffffffffffffffffff1673ffffffffffffffffffffffffffffffffffffffff1681526020019081526020015f205f828254610af69190610d98565b925050819055506201518083610b0c9190611091565b42610b179190610d98565b60015f8673ffffffffffffffffffffffffffffffffffffffff1673ffffffffffffffffffffffffffffffffffffffff1681526020019081526020015f2081905550600190509392505050565b5f5ffd5b5f73ffffffffffffffffffffffffffffffffffffffff82169050919050565b5f610b9082610b67565b9050919050565b610ba081610b86565b8114610baa575f5ffd5b50565b5f81359050610bbb81610b97565b92915050565b5f5f60408385031215610bd757610bd6610b63565b5b5f610be485828601610bad565b9250506020610bf585828601610bad565b9150509250929050565b5f8115159050919050565b610c1381610bff565b82525050565b5f602082019050610c2c5f830184610c0a565b92915050565b5f819050919050565b610c4481610c32565b8114610c4e575f5ffd5b50565b5f81359050610c5f81610c3b565b92915050565b5f5f60408385031215610c7b57610c7a610b63565b5b5f610c8885828601610bad565b9250506020610c9985828601610c51565b9150509250929050565b5f5f5f60608486031215610cba57610cb9610b63565b5b5f610cc786828701610bad565b9350506020610cd886828701610c51565b9250506040610ce986828701610c51565b9150509250925092565b5f82825260208201905092915050565b7f536164656365204b6f6e747261742049736c656d205961706162696c697200005f82015250565b5f610d37601e83610cf3565b9150610d4282610d03565b602082019050919050565b5f6020820190508181035f830152610d6481610d2b565b9050919050565b7f4e487b71000000000000000000000000000000000000000000000000000000005f52601160045260245ffd5b5f610da282610c32565b9150610dad83610c32565b9250828201905080821115610dc557610dc4610d6b565b5b92915050565b7f43656b696d2054617269686920446168612047656c6d656469000000000000005f82015250565b5f610dff601983610cf3565b9150610e0a82610dcb565b602082019050919050565b5f6020820190508181035f830152610e2c81610df3565b9050919050565b7f596574657273697a204d696b74617200000000000000000000000000000000005f82015250565b5f610e67600f83610cf3565b9150610e7282610e33565b602082019050919050565b5f6020820190508181035f830152610e9481610e5b565b9050919050565b610ea481610b86565b82525050565b610eb381610c32565b82525050565b5f604082019050610ecc5f830185610e9b565b610ed96020830184610eaa565b9392505050565b610ee981610bff565b8114610ef3575f5ffd5b50565b5f81519050610f0481610ee0565b92915050565b5f60208284031215610f1f57610f1e610b63565b5b5f610f2c84828501610ef6565b91505092915050565b5f610f3f82610c32565b9150610f4a83610c32565b9250828203905081811115610f6257610f61610d6b565b5b92915050565b5f604082019050610f7b5f830185610e9b565b610f886020830184610e9b565b9392505050565b5f81519050610f9d81610c3b565b92915050565b5f60208284031215610fb857610fb7610b63565b5b5f610fc584828501610f8f565b91505092915050565b7f59657465726c6920416c6c6f77656e636520796f6b20417070726f76652079655f8201527f746b69736920766572696e000000000000000000000000000000000000000000602082015250565b5f611028602b83610cf3565b915061103382610fce565b604082019050919050565b5f6020820190508181035f8301526110558161101c565b9050919050565b5f60608201905061106f5f830186610e9b565b61107c6020830185610e9b565b6110896040830184610eaa565b949350505050565b5f61109b82610c32565b91506110a683610c32565b92508282026110b481610c32565b915082820484148315176110cb576110ca610d6b565b5b509291505056fea2646970667358221220ccc800882c3b50cb00b204c0753a7d25a824d928f618917f1782c4ca853a10b964736f6c634300081b0033",
					"opcodes": "PUSH1 0x80 PUSH1 0x40 MSTORE CALLVALUE DUP1 ISZERO PUSH2 0xF JUMPI PUSH0 PUSH0 REVERT JUMPDEST POP PUSH1 0x40 MLOAD PUSH2 0x1269 CODESIZE SUB DUP1 PUSH2 0x1269 DUP4 CODECOPY DUP2 DUP2 ADD PUSH1 0x40 MSTORE DUP2 ADD SWAP1 PUSH2 0x31 SWAP2 SWAP1 PUSH2 0x116 JUMP JUMPDEST DUP1 PUSH1 0x2 PUSH0 PUSH2 0x100 EXP DUP2 SLOAD DUP2 PUSH20 0xFFFFFFFFFFFFFFFFFFFFFFFFFFFFFFFFFFFFFFFF MUL NOT AND SWAP1 DUP4 PUSH20 0xFFFFFFFFFFFFFFFFFFFFFFFFFFFFFFFFFFFFFFFF AND MUL OR SWAP1 SSTORE POP DUP2 PUSH1 0x3 PUSH0 PUSH2 0x100 EXP DUP2 SLOAD DUP2 PUSH20 0xFFFFFFFFFFFFFFFFFFFFFFFFFFFFFFFFFFFFFFFF MUL NOT AND SWAP1 DUP4 PUSH20 0xFFFFFFFFFFFFFFFFFFFFFFFFFFFFFFFFFFFFFFFF AND MUL OR SWAP1 SSTORE POP POP POP PUSH2 0x154 JUMP JUMPDEST PUSH0 PUSH0 REVERT JUMPDEST PUSH0 PUSH20 0xFFFFFFFFFFFFFFFFFFFFFFFFFFFFFFFFFFFFFFFF DUP3 AND SWAP1 POP SWAP2 SWAP1 POP JUMP JUMPDEST PUSH0 PUSH2 0xE5 DUP3 PUSH2 0xBC JUMP JUMPDEST SWAP1 POP SWAP2 SWAP1 POP JUMP JUMPDEST PUSH2 0xF5 DUP2 PUSH2 0xDB JUMP JUMPDEST DUP2 EQ PUSH2 0xFF JUMPI PUSH0 PUSH0 REVERT JUMPDEST POP JUMP JUMPDEST PUSH0 DUP2 MLOAD SWAP1 POP PUSH2 0x110 DUP2 PUSH2 0xEC JUMP JUMPDEST SWAP3 SWAP2 POP POP JUMP JUMPDEST PUSH0 PUSH0 PUSH1 0x40 DUP4 DUP6 SUB SLT ISZERO PUSH2 0x12C JUMPI PUSH2 0x12B PUSH2 0xB8 JUMP JUMPDEST JUMPDEST PUSH0 PUSH2 0x139 DUP6 DUP3 DUP7 ADD PUSH2 0x102 JUMP JUMPDEST SWAP3 POP POP PUSH1 0x20 PUSH2 0x14A DUP6 DUP3 DUP7 ADD PUSH2 0x102 JUMP JUMPDEST SWAP2 POP POP SWAP3 POP SWAP3 SWAP1 POP JUMP JUMPDEST PUSH2 0x1108 DUP1 PUSH2 0x161 PUSH0 CODECOPY PUSH0 RETURN INVALID PUSH1 0x80 PUSH1 0x40 MSTORE CALLVALUE DUP1 ISZERO PUSH2 0xF JUMPI PUSH0 PUSH0 REVERT JUMPDEST POP PUSH1 0x4 CALLDATASIZE LT PUSH2 0x3F JUMPI PUSH0 CALLDATALOAD PUSH1 0xE0 SHR DUP1 PUSH4 0x5C486528 EQ PUSH2 0x43 JUMPI DUP1 PUSH4 0x884EDAD9 EQ PUSH2 0x73 JUMPI DUP1 PUSH4 0x90890809 EQ PUSH2 0xA3 JUMPI JUMPDEST PUSH0 PUSH0 REVERT JUMPDEST PUSH2 0x5D PUSH1 0x4 DUP1 CALLDATASIZE SUB DUP2 ADD SWAP1 PUSH2 0x58 SWAP2 SWAP1 PUSH2 0xBC1 JUMP JUMPDEST PUSH2 0xD3 JUMP JUMPDEST PUSH1 0x40 MLOAD PUSH2 0x6A SWAP2 SWAP1 PUSH2 0xC19 JUMP JUMPDEST PUSH1 0x40 MLOAD DUP1 SWAP2 SUB SWAP1 RETURN JUMPDEST PUSH2 0x8D PUSH1 0x4 DUP1 CALLDATASIZE SUB DUP2 ADD SWAP1 PUSH2 0x88 SWAP2 SWAP1 PUSH2 0xC65 JUMP JUMPDEST PUSH2 0x552 JUMP JUMPDEST PUSH1 0x40 MLOAD PUSH2 0x9A SWAP2 SWAP1 PUSH2 0xC19 JUMP JUMPDEST PUSH1 0x40 MLOAD DUP1 SWAP2 SUB SWAP1 RETURN JUMPDEST PUSH2 0xBD PUSH1 0x4 DUP1 CALLDATASIZE SUB DUP2 ADD SWAP1 PUSH2 0xB8 SWAP2 SWAP1 PUSH2 0xCA3 JUMP JUMPDEST PUSH2 0x89F JUMP JUMPDEST PUSH1 0x40 MLOAD PUSH2 0xCA SWAP2 SWAP1 PUSH2 0xC19 JUMP JUMPDEST PUSH1 0x40 MLOAD DUP1 SWAP2 SUB SWAP1 RETURN JUMPDEST PUSH0 PUSH1 0x3 PUSH0 SWAP1 SLOAD SWAP1 PUSH2 0x100 EXP SWAP1 DIV PUSH20 0xFFFFFFFFFFFFFFFFFFFFFFFFFFFFFFFFFFFFFFFF AND PUSH20 0xFFFFFFFFFFFFFFFFFFFFFFFFFFFFFFFFFFFFFFFF AND CALLER PUSH20 0xFFFFFFFFFFFFFFFFFFFFFFFFFFFFFFFFFFFFFFFF AND EQ PUSH2 0x163 JUMPI PUSH1 0x40 MLOAD PUSH32 0x8C379A000000000000000000000000000000000000000000000000000000000 DUP2 MSTORE PUSH1 0x4 ADD PUSH2 0x15A SWAP1 PUSH2 0xD4D JUMP JUMPDEST PUSH1 0x40 MLOAD DUP1 SWAP2 SUB SWAP1 REVERT JUMPDEST PUSH0 PUSH0 PUSH0 DUP5 PUSH20 0xFFFFFFFFFFFFFFFFFFFFFFFFFFFFFFFFFFFFFFFF AND PUSH20 0xFFFFFFFFFFFFFFFFFFFFFFFFFFFFFFFFFFFFFFFF AND DUP2 MSTORE PUSH1 0x20 ADD SWAP1 DUP2 MSTORE PUSH1 0x20 ADD PUSH0 KECCAK256 SLOAD GT ISZERO PUSH2 0x338 JUMPI PUSH0 PUSH0 DUP5 PUSH20 0xFFFFFFFFFFFFFFFFFFFFFFFFFFFFFFFFFFFFFFFF AND PUSH20 0xFFFFFFFFFFFFFFFFFFFFFFFFFFFFFFFFFFFFFFFF AND DUP2 MSTORE PUSH1 0x20 ADD SWAP1 DUP2 MSTORE PUSH1 0x20 ADD PUSH0 KECCAK256 SLOAD PUSH0 PUSH0 DUP5 PUSH20 0xFFFFFFFFFFFFFFFFFFFFFFFFFFFFFFFFFFFFFFFF AND PUSH20 0xFFFFFFFFFFFFFFFFFFFFFFFFFFFFFFFFFFFFFFFF AND DUP2 MSTORE PUSH1 0x20 ADD SWAP1 DUP2 MSTORE PUSH1 0x20 ADD PUSH0 KECCAK256 PUSH0 DUP3 DUP3 SLOAD PUSH2 0x22E SWAP2 SWAP1 PUSH2 0xD98 JUMP JUMPDEST SWAP3 POP POP DUP2 SWAP1 SSTORE POP PUSH1 0x1 PUSH0 DUP5 PUSH20 0xFFFFFFFFFFFFFFFFFFFFFFFFFFFFFFFFFFFFFFFF AND PUSH20 0xFFFFFFFFFFFFFFFFFFFFFFFFFFFFFFFFFFFFFFFF AND DUP2 MSTORE PUSH1 0x20 ADD SWAP1 DUP2 MSTORE PUSH1 0x20 ADD PUSH0 KECCAK256 SLOAD PUSH1 0x1 PUSH0 DUP5 PUSH20 0xFFFFFFFFFFFFFFFFFFFFFFFFFFFFFFFFFFFFFFFF AND PUSH20 0xFFFFFFFFFFFFFFFFFFFFFFFFFFFFFFFFFFFFFFFF AND DUP2 MSTORE PUSH1 0x20 ADD SWAP1 DUP2 MSTORE PUSH1 0x20 ADD PUSH0 KECCAK256 DUP2 SWAP1 SSTORE POP PUSH0 PUSH0 DUP5 PUSH20 0xFFFFFFFFFFFFFFFFFFFFFFFFFFFFFFFFFFFFFFFF AND PUSH20 0xFFFFFFFFFFFFFFFFFFFFFFFFFFFFFFFFFFFFFFFF AND DUP2 MSTORE PUSH1 0x20 ADD SWAP1 DUP2 MSTORE PUSH1 0x20 ADD PUSH0 KECCAK256 PUSH0 SWAP1 SSTORE PUSH1 0x1 PUSH0 DUP5 PUSH20 0xFFFFFFFFFFFFFFFFFFFFFFFFFFFFFFFFFFFFFFFF AND PUSH20 0xFFFFFFFFFFFFFFFFFFFFFFFFFFFFFFFFFFFFFFFF AND DUP2 MSTORE PUSH1 0x20 ADD SWAP1 DUP2 MSTORE PUSH1 0x20 ADD PUSH0 KECCAK256 PUSH0 SWAP1 SSTORE PUSH2 0x4C9 JUMP JUMPDEST PUSH0 PUSH0 DUP5 PUSH20 0xFFFFFFFFFFFFFFFFFFFFFFFFFFFFFFFFFFFFFFFF AND PUSH20 0xFFFFFFFFFFFFFFFFFFFFFFFFFFFFFFFFFFFFFFFF AND DUP2 MSTORE PUSH1 0x20 ADD SWAP1 DUP2 MSTORE PUSH1 0x20 ADD PUSH0 KECCAK256 SLOAD PUSH0 PUSH0 DUP5 PUSH20 0xFFFFFFFFFFFFFFFFFFFFFFFFFFFFFFFFFFFFFFFF AND PUSH20 0xFFFFFFFFFFFFFFFFFFFFFFFFFFFFFFFFFFFFFFFF AND DUP2 MSTORE PUSH1 0x20 ADD SWAP1 DUP2 MSTORE PUSH1 0x20 ADD PUSH0 KECCAK256 PUSH0 DUP3 DUP3 SLOAD PUSH2 0x3BF SWAP2 SWAP1 PUSH2 0xD98 JUMP JUMPDEST SWAP3 POP POP DUP2 SWAP1 SSTORE POP PUSH1 0x1 PUSH0 DUP5 PUSH20 0xFFFFFFFFFFFFFFFFFFFFFFFFFFFFFFFFFFFFFFFF AND PUSH20 0xFFFFFFFFFFFFFFFFFFFFFFFFFFFFFFFFFFFFFFFF AND DUP2 MSTORE PUSH1 0x20 ADD SWAP1 DUP2 MSTORE PUSH1 0x20 ADD PUSH0 KECCAK256 SLOAD PUSH1 0x1 PUSH0 DUP5 PUSH20 0xFFFFFFFFFFFFFFFFFFFFFFFFFFFFFFFFFFFFFFFF AND PUSH20 0xFFFFFFFFFFFFFFFFFFFFFFFFFFFFFFFFFFFFFFFF AND DUP2 MSTORE PUSH1 0x20 ADD SWAP1 DUP2 MSTORE PUSH1 0x20 ADD PUSH0 KECCAK256 SLOAD LT ISZERO PUSH2 0x4C8 JUMPI PUSH1 0x1 PUSH0 DUP5 PUSH20 0xFFFFFFFFFFFFFFFFFFFFFFFFFFFFFFFFFFFFFFFF AND PUSH20 0xFFFFFFFFFFFFFFFFFFFFFFFFFFFFFFFFFFFFFFFF AND DUP2 MSTORE PUSH1 0x20 ADD SWAP1 DUP2 MSTORE PUSH1 0x20 ADD PUSH0 KECCAK256 SLOAD PUSH1 0x1 PUSH0 DUP5 PUSH20 0xFFFFFFFFFFFFFFFFFFFFFFFFFFFFFFFFFFFFFFFF AND PUSH20 0xFFFFFFFFFFFFFFFFFFFFFFFFFFFFFFFFFFFFFFFF AND DUP2 MSTORE PUSH1 0x20 ADD SWAP1 DUP2 MSTORE PUSH1 0x20 ADD PUSH0 KECCAK256 DUP2 SWAP1 SSTORE POP JUMPDEST JUMPDEST PUSH0 PUSH0 DUP5 PUSH20 0xFFFFFFFFFFFFFFFFFFFFFFFFFFFFFFFFFFFFFFFF AND PUSH20 0xFFFFFFFFFFFFFFFFFFFFFFFFFFFFFFFFFFFFFFFF AND DUP2 MSTORE PUSH1 0x20 ADD SWAP1 DUP2 MSTORE PUSH1 0x20 ADD PUSH0 KECCAK256 PUSH0 SWAP1 SSTORE PUSH1 0x1 PUSH0 DUP5 PUSH20 0xFFFFFFFFFFFFFFFFFFFFFFFFFFFFFFFFFFFFFFFF AND PUSH20 0xFFFFFFFFFFFFFFFFFFFFFFFFFFFFFFFFFFFFFFFF AND DUP2 MSTORE PUSH1 0x20 ADD SWAP1 DUP2 MSTORE PUSH1 0x20 ADD PUSH0 KECCAK256 PUSH0 SWAP1 SSTORE PUSH1 0x1 SWAP1 POP SWAP3 SWAP2 POP POP JUMP JUMPDEST PUSH0 DUP3 PUSH1 0x1 PUSH0 DUP3 PUSH20 0xFFFFFFFFFFFFFFFFFFFFFFFFFFFFFFFFFFFFFFFF AND PUSH20 0xFFFFFFFFFFFFFFFFFFFFFFFFFFFFFFFFFFFFFFFF AND DUP2 MSTORE PUSH1 0x20 ADD SWAP1 DUP2 MSTORE PUSH1 0x20 ADD PUSH0 KECCAK256 SLOAD TIMESTAMP LT ISZERO PUSH2 0x5D4 JUMPI PUSH1 0x40 MLOAD PUSH32 0x8C379A000000000000000000000000000000000000000000000000000000000 DUP2 MSTORE PUSH1 0x4 ADD PUSH2 0x5CB SWAP1 PUSH2 0xE15 JUMP JUMPDEST PUSH1 0x40 MLOAD DUP1 SWAP2 SUB SWAP1 REVERT JUMPDEST PUSH1 0x3 PUSH0 SWAP1 SLOAD SWAP1 PUSH2 0x100 EXP SWAP1 DIV PUSH20 0xFFFFFFFFFFFFFFFFFFFFFFFFFFFFFFFFFFFFFFFF AND PUSH20 0xFFFFFFFFFFFFFFFFFFFFFFFFFFFFFFFFFFFFFFFF AND CALLER PUSH20 0xFFFFFFFFFFFFFFFFFFFFFFFFFFFFFFFFFFFFFFFF AND EQ PUSH2 0x663 JUMPI PUSH1 0x40 MLOAD PUSH32 0x8C379A000000000000000000000000000000000000000000000000000000000 DUP2 MSTORE PUSH1 0x4 ADD PUSH2 0x65A SWAP1 PUSH2 0xD4D JUMP JUMPDEST PUSH1 0x40 MLOAD DUP1 SWAP2 SUB SWAP1 REVERT JUMPDEST DUP3 PUSH0 PUSH0 DUP7 PUSH20 0xFFFFFFFFFFFFFFFFFFFFFFFFFFFFFFFFFFFFFFFF AND PUSH20 0xFFFFFFFFFFFFFFFFFFFFFFFFFFFFFFFFFFFFFFFF AND DUP2 MSTORE PUSH1 0x20 ADD SWAP1 DUP2 MSTORE PUSH1 0x20 ADD PUSH0 KECCAK256 SLOAD LT ISZERO PUSH2 0x6E2 JUMPI PUSH1 0x40 MLOAD PUSH32 0x8C379A000000000000000000000000000000000000000000000000000000000 DUP2 MSTORE PUSH1 0x4 ADD PUSH2 0x6D9 SWAP1 PUSH2 0xE7D JUMP JUMPDEST PUSH1 0x40 MLOAD DUP1 SWAP2 SUB SWAP1 REVERT JUMPDEST PUSH1 0x2 PUSH0 SWAP1 SLOAD SWAP1 PUSH2 0x100 EXP SWAP1 DIV PUSH20 0xFFFFFFFFFFFFFFFFFFFFFFFFFFFFFFFFFFFFFFFF AND PUSH20 0xFFFFFFFFFFFFFFFFFFFFFFFFFFFFFFFFFFFFFFFF AND PUSH4 0xA9059CBB DUP6 DUP6 PUSH1 0x40 MLOAD DUP4 PUSH4 0xFFFFFFFF AND PUSH1 0xE0 SHL DUP2 MSTORE PUSH1 0x4 ADD PUSH2 0x73E SWAP3 SWAP2 SWAP1 PUSH2 0xEB9 JUMP JUMPDEST PUSH1 0x20 PUSH1 0x40 MLOAD DUP1 DUP4 SUB DUP2 PUSH0 DUP8 GAS CALL ISZERO DUP1 ISZERO PUSH2 0x75A JUMPI RETURNDATASIZE PUSH0 PUSH0 RETURNDATACOPY RETURNDATASIZE PUSH0 REVERT JUMPDEST POP POP POP POP PUSH1 0x40 MLOAD RETURNDATASIZE PUSH1 0x1F NOT PUSH1 0x1F DUP3 ADD AND DUP3 ADD DUP1 PUSH1 0x40 MSTORE POP DUP2 ADD SWAP1 PUSH2 0x77E SWAP2 SWAP1 PUSH2 0xF0A JUMP JUMPDEST POP DUP3 PUSH0 PUSH0 DUP7 PUSH20 0xFFFFFFFFFFFFFFFFFFFFFFFFFFFFFFFFFFFFFFFF AND PUSH20 0xFFFFFFFFFFFFFFFFFFFFFFFFFFFFFFFFFFFFFFFF AND DUP2 MSTORE PUSH1 0x20 ADD SWAP1 DUP2 MSTORE PUSH1 0x20 ADD PUSH0 KECCAK256 PUSH0 DUP3 DUP3 SLOAD PUSH2 0x7CA SWAP2 SWAP1 PUSH2 0xF35 JUMP JUMPDEST SWAP3 POP POP DUP2 SWAP1 SSTORE POP PUSH0 PUSH0 PUSH0 DUP7 PUSH20 0xFFFFFFFFFFFFFFFFFFFFFFFFFFFFFFFFFFFFFFFF AND PUSH20 0xFFFFFFFFFFFFFFFFFFFFFFFFFFFFFFFFFFFFFFFF AND DUP2 MSTORE PUSH1 0x20 ADD SWAP1 DUP2 MSTORE PUSH1 0x20 ADD PUSH0 KECCAK256 SLOAD SUB PUSH2 0x894 JUMPI PUSH1 0x1 PUSH0 DUP6 PUSH20 0xFFFFFFFFFFFFFFFFFFFFFFFFFFFFFFFFFFFFFFFF AND PUSH20 0xFFFFFFFFFFFFFFFFFFFFFFFFFFFFFFFFFFFFFFFF AND DUP2 MSTORE PUSH1 0x20 ADD SWAP1 DUP2 MSTORE PUSH1 0x20 ADD PUSH0 KECCAK256 PUSH0 SWAP1 SSTORE PUSH0 PUSH0 DUP6 PUSH20 0xFFFFFFFFFFFFFFFFFFFFFFFFFFFFFFFFFFFFFFFF AND PUSH20 0xFFFFFFFFFFFFFFFFFFFFFFFFFFFFFFFFFFFFFFFF AND DUP2 MSTORE PUSH1 0x20 ADD SWAP1 DUP2 MSTORE PUSH1 0x20 ADD PUSH0 KECCAK256 PUSH0 SWAP1 SSTORE JUMPDEST PUSH1 0x1 SWAP2 POP POP SWAP3 SWAP2 POP POP JUMP JUMPDEST PUSH0 PUSH1 0x3 PUSH0 SWAP1 SLOAD SWAP1 PUSH2 0x100 EXP SWAP1 DIV PUSH20 0xFFFFFFFFFFFFFFFFFFFFFFFFFFFFFFFFFFFFFFFF AND PUSH20 0xFFFFFFFFFFFFFFFFFFFFFFFFFFFFFFFFFFFFFFFF AND CALLER PUSH20 0xFFFFFFFFFFFFFFFFFFFFFFFFFFFFFFFFFFFFFFFF AND EQ PUSH2 0x92F JUMPI PUSH1 0x40 MLOAD PUSH32 0x8C379A000000000000000000000000000000000000000000000000000000000 DUP2 MSTORE PUSH1 0x4 ADD PUSH2 0x926 SWAP1 PUSH2 0xD4D JUMP JUMPDEST PUSH1 0x40 MLOAD DUP1 SWAP2 SUB SWAP1 REVERT JUMPDEST DUP2 PUSH1 0x2 PUSH0 SWAP1 SLOAD SWAP1 PUSH2 0x100 EXP SWAP1 DIV PUSH20 0xFFFFFFFFFFFFFFFFFFFFFFFFFFFFFFFFFFFFFFFF AND PUSH20 0xFFFFFFFFFFFFFFFFFFFFFFFFFFFFFFFFFFFFFFFF AND PUSH4 0xDD62ED3E CALLER ADDRESS PUSH1 0x40 MLOAD DUP4 PUSH4 0xFFFFFFFF AND PUSH1 0xE0 SHL DUP2 MSTORE PUSH1 0x4 ADD PUSH2 0x98C SWAP3 SWAP2 SWAP1 PUSH2 0xF68 JUMP JUMPDEST PUSH1 0x20 PUSH1 0x40 MLOAD DUP1 DUP4 SUB DUP2 DUP7 GAS STATICCALL ISZERO DUP1 ISZERO PUSH2 0x9A7 JUMPI RETURNDATASIZE PUSH0 PUSH0 RETURNDATACOPY RETURNDATASIZE PUSH0 REVERT JUMPDEST POP POP POP POP PUSH1 0x40 MLOAD RETURNDATASIZE PUSH1 0x1F NOT PUSH1 0x1F DUP3 ADD AND DUP3 ADD DUP1 PUSH1 0x40 MSTORE POP DUP2 ADD SWAP1 PUSH2 0x9CB SWAP2 SWAP1 PUSH2 0xFA3 JUMP JUMPDEST LT ISZERO PUSH2 0xA0C JUMPI PUSH1 0x40 MLOAD PUSH32 0x8C379A000000000000000000000000000000000000000000000000000000000 DUP2 MSTORE PUSH1 0x4 ADD PUSH2 0xA03 SWAP1 PUSH2 0x103E JUMP JUMPDEST PUSH1 0x40 MLOAD DUP1 SWAP2 SUB SWAP1 REVERT JUMPDEST PUSH1 0x2 PUSH0 SWAP1 SLOAD SWAP1 PUSH2 0x100 EXP SWAP1 DIV PUSH20 0xFFFFFFFFFFFFFFFFFFFFFFFFFFFFFFFFFFFFFFFF AND PUSH20 0xFFFFFFFFFFFFFFFFFFFFFFFFFFFFFFFFFFFFFFFF AND PUSH4 0x23B872DD CALLER ADDRESS DUP6 PUSH1 0x40 MLOAD DUP5 PUSH4 0xFFFFFFFF AND PUSH1 0xE0 SHL DUP2 MSTORE PUSH1 0x4 ADD PUSH2 0xA6A SWAP4 SWAP3 SWAP2 SWAP1 PUSH2 0x105C JUMP JUMPDEST PUSH1 0x20 PUSH1 0x40 MLOAD DUP1 DUP4 SUB DUP2 PUSH0 DUP8 GAS CALL ISZERO DUP1 ISZERO PUSH2 0xA86 JUMPI RETURNDATASIZE PUSH0 PUSH0 RETURNDATACOPY RETURNDATASIZE PUSH0 REVERT JUMPDEST POP POP POP POP PUSH1 0x40 MLOAD RETURNDATASIZE PUSH1 0x1F NOT PUSH1 0x1F DUP3 ADD AND DUP3 ADD DUP1 PUSH1 0x40 MSTORE POP DUP2 ADD SWAP1 PUSH2 0xAAA SWAP2 SWAP1 PUSH2 0xF0A JUMP JUMPDEST POP DUP2 PUSH0 PUSH0 DUP7 PUSH20 0xFFFFFFFFFFFFFFFFFFFFFFFFFFFFFFFFFFFFFFFF AND PUSH20 0xFFFFFFFFFFFFFFFFFFFFFFFFFFFFFFFFFFFFFFFF AND DUP2 MSTORE PUSH1 0x20 ADD SWAP1 DUP2 MSTORE PUSH1 0x20 ADD PUSH0 KECCAK256 PUSH0 DUP3 DUP3 SLOAD PUSH2 0xAF6 SWAP2 SWAP1 PUSH2 0xD98 JUMP JUMPDEST SWAP3 POP POP DUP2 SWAP1 SSTORE POP PUSH3 0x15180 DUP4 PUSH2 0xB0C SWAP2 SWAP1 PUSH2 0x1091 JUMP JUMPDEST TIMESTAMP PUSH2 0xB17 SWAP2 SWAP1 PUSH2 0xD98 JUMP JUMPDEST PUSH1 0x1 PUSH0 DUP7 PUSH20 0xFFFFFFFFFFFFFFFFFFFFFFFFFFFFFFFFFFFFFFFF AND PUSH20 0xFFFFFFFFFFFFFFFFFFFFFFFFFFFFFFFFFFFFFFFF AND DUP2 MSTORE PUSH1 0x20 ADD SWAP1 DUP2 MSTORE PUSH1 0x20 ADD PUSH0 KECCAK256 DUP2 SWAP1 SSTORE POP PUSH1 0x1 SWAP1 POP SWAP4 SWAP3 POP POP POP JUMP JUMPDEST PUSH0 PUSH0 REVERT JUMPDEST PUSH0 PUSH20 0xFFFFFFFFFFFFFFFFFFFFFFFFFFFFFFFFFFFFFFFF DUP3 AND SWAP1 POP SWAP2 SWAP1 POP JUMP JUMPDEST PUSH0 PUSH2 0xB90 DUP3 PUSH2 0xB67 JUMP JUMPDEST SWAP1 POP SWAP2 SWAP1 POP JUMP JUMPDEST PUSH2 0xBA0 DUP2 PUSH2 0xB86 JUMP JUMPDEST DUP2 EQ PUSH2 0xBAA JUMPI PUSH0 PUSH0 REVERT JUMPDEST POP JUMP JUMPDEST PUSH0 DUP2 CALLDATALOAD SWAP1 POP PUSH2 0xBBB DUP2 PUSH2 0xB97 JUMP JUMPDEST SWAP3 SWAP2 POP POP JUMP JUMPDEST PUSH0 PUSH0 PUSH1 0x40 DUP4 DUP6 SUB SLT ISZERO PUSH2 0xBD7 JUMPI PUSH2 0xBD6 PUSH2 0xB63 JUMP JUMPDEST JUMPDEST PUSH0 PUSH2 0xBE4 DUP6 DUP3 DUP7 ADD PUSH2 0xBAD JUMP JUMPDEST SWAP3 POP POP PUSH1 0x20 PUSH2 0xBF5 DUP6 DUP3 DUP7 ADD PUSH2 0xBAD JUMP JUMPDEST SWAP2 POP POP SWAP3 POP SWAP3 SWAP1 POP JUMP JUMPDEST PUSH0 DUP2 ISZERO ISZERO SWAP1 POP SWAP2 SWAP1 POP JUMP JUMPDEST PUSH2 0xC13 DUP2 PUSH2 0xBFF JUMP JUMPDEST DUP3 MSTORE POP POP JUMP JUMPDEST PUSH0 PUSH1 0x20 DUP3 ADD SWAP1 POP PUSH2 0xC2C PUSH0 DUP4 ADD DUP5 PUSH2 0xC0A JUMP JUMPDEST SWAP3 SWAP2 POP POP JUMP JUMPDEST PUSH0 DUP2 SWAP1 POP SWAP2 SWAP1 POP JUMP JUMPDEST PUSH2 0xC44 DUP2 PUSH2 0xC32 JUMP JUMPDEST DUP2 EQ PUSH2 0xC4E JUMPI PUSH0 PUSH0 REVERT JUMPDEST POP JUMP JUMPDEST PUSH0 DUP2 CALLDATALOAD SWAP1 POP PUSH2 0xC5F DUP2 PUSH2 0xC3B JUMP JUMPDEST SWAP3 SWAP2 POP POP JUMP JUMPDEST PUSH0 PUSH0 PUSH1 0x40 DUP4 DUP6 SUB SLT ISZERO PUSH2 0xC7B JUMPI PUSH2 0xC7A PUSH2 0xB63 JUMP JUMPDEST JUMPDEST PUSH0 PUSH2 0xC88 DUP6 DUP3 DUP7 ADD PUSH2 0xBAD JUMP JUMPDEST SWAP3 POP POP PUSH1 0x20 PUSH2 0xC99 DUP6 DUP3 DUP7 ADD PUSH2 0xC51 JUMP JUMPDEST SWAP2 POP POP SWAP3 POP SWAP3 SWAP1 POP JUMP JUMPDEST PUSH0 PUSH0 PUSH0 PUSH1 0x60 DUP5 DUP7 SUB SLT ISZERO PUSH2 0xCBA JUMPI PUSH2 0xCB9 PUSH2 0xB63 JUMP JUMPDEST JUMPDEST PUSH0 PUSH2 0xCC7 DUP7 DUP3 DUP8 ADD PUSH2 0xBAD JUMP JUMPDEST SWAP4 POP POP PUSH1 0x20 PUSH2 0xCD8 DUP7 DUP3 DUP8 ADD PUSH2 0xC51 JUMP JUMPDEST SWAP3 POP POP PUSH1 0x40 PUSH2 0xCE9 DUP7 DUP3 DUP8 ADD PUSH2 0xC51 JUMP JUMPDEST SWAP2 POP POP SWAP3 POP SWAP3 POP SWAP3 JUMP JUMPDEST PUSH0 DUP3 DUP3 MSTORE PUSH1 0x20 DUP3 ADD SWAP1 POP SWAP3 SWAP2 POP POP JUMP JUMPDEST PUSH32 0x536164656365204B6F6E747261742049736C656D205961706162696C69720000 PUSH0 DUP3 ADD MSTORE POP JUMP JUMPDEST PUSH0 PUSH2 0xD37 PUSH1 0x1E DUP4 PUSH2 0xCF3 JUMP JUMPDEST SWAP2 POP PUSH2 0xD42 DUP3 PUSH2 0xD03 JUMP JUMPDEST PUSH1 0x20 DUP3 ADD SWAP1 POP SWAP2 SWAP1 POP JUMP JUMPDEST PUSH0 PUSH1 0x20 DUP3 ADD SWAP1 POP DUP2 DUP2 SUB PUSH0 DUP4 ADD MSTORE PUSH2 0xD64 DUP2 PUSH2 0xD2B JUMP JUMPDEST SWAP1 POP SWAP2 SWAP1 POP JUMP JUMPDEST PUSH32 0x4E487B7100000000000000000000000000000000000000000000000000000000 PUSH0 MSTORE PUSH1 0x11 PUSH1 0x4 MSTORE PUSH1 0x24 PUSH0 REVERT JUMPDEST PUSH0 PUSH2 0xDA2 DUP3 PUSH2 0xC32 JUMP JUMPDEST SWAP2 POP PUSH2 0xDAD DUP4 PUSH2 0xC32 JUMP JUMPDEST SWAP3 POP DUP3 DUP3 ADD SWAP1 POP DUP1 DUP3 GT ISZERO PUSH2 0xDC5 JUMPI PUSH2 0xDC4 PUSH2 0xD6B JUMP JUMPDEST JUMPDEST SWAP3 SWAP2 POP POP JUMP JUMPDEST PUSH32 0x43656B696D2054617269686920446168612047656C6D65646900000000000000 PUSH0 DUP3 ADD MSTORE POP JUMP JUMPDEST PUSH0 PUSH2 0xDFF PUSH1 0x19 DUP4 PUSH2 0xCF3 JUMP JUMPDEST SWAP2 POP PUSH2 0xE0A DUP3 PUSH2 0xDCB JUMP JUMPDEST PUSH1 0x20 DUP3 ADD SWAP1 POP SWAP2 SWAP1 POP JUMP JUMPDEST PUSH0 PUSH1 0x20 DUP3 ADD SWAP1 POP DUP2 DUP2 SUB PUSH0 DUP4 ADD MSTORE PUSH2 0xE2C DUP2 PUSH2 0xDF3 JUMP JUMPDEST SWAP1 POP SWAP2 SWAP1 POP JUMP JUMPDEST PUSH32 0x596574657273697A204D696B7461720000000000000000000000000000000000 PUSH0 DUP3 ADD MSTORE POP JUMP JUMPDEST PUSH0 PUSH2 0xE67 PUSH1 0xF DUP4 PUSH2 0xCF3 JUMP JUMPDEST SWAP2 POP PUSH2 0xE72 DUP3 PUSH2 0xE33 JUMP JUMPDEST PUSH1 0x20 DUP3 ADD SWAP1 POP SWAP2 SWAP1 POP JUMP JUMPDEST PUSH0 PUSH1 0x20 DUP3 ADD SWAP1 POP DUP2 DUP2 SUB PUSH0 DUP4 ADD MSTORE PUSH2 0xE94 DUP2 PUSH2 0xE5B JUMP JUMPDEST SWAP1 POP SWAP2 SWAP1 POP JUMP JUMPDEST PUSH2 0xEA4 DUP2 PUSH2 0xB86 JUMP JUMPDEST DUP3 MSTORE POP POP JUMP JUMPDEST PUSH2 0xEB3 DUP2 PUSH2 0xC32 JUMP JUMPDEST DUP3 MSTORE POP POP JUMP JUMPDEST PUSH0 PUSH1 0x40 DUP3 ADD SWAP1 POP PUSH2 0xECC PUSH0 DUP4 ADD DUP6 PUSH2 0xE9B JUMP JUMPDEST PUSH2 0xED9 PUSH1 0x20 DUP4 ADD DUP5 PUSH2 0xEAA JUMP JUMPDEST SWAP4 SWAP3 POP POP POP JUMP JUMPDEST PUSH2 0xEE9 DUP2 PUSH2 0xBFF JUMP JUMPDEST DUP2 EQ PUSH2 0xEF3 JUMPI PUSH0 PUSH0 REVERT JUMPDEST POP JUMP JUMPDEST PUSH0 DUP2 MLOAD SWAP1 POP PUSH2 0xF04 DUP2 PUSH2 0xEE0 JUMP JUMPDEST SWAP3 SWAP2 POP POP JUMP JUMPDEST PUSH0 PUSH1 0x20 DUP3 DUP5 SUB SLT ISZERO PUSH2 0xF1F JUMPI PUSH2 0xF1E PUSH2 0xB63 JUMP JUMPDEST JUMPDEST PUSH0 PUSH2 0xF2C DUP5 DUP3 DUP6 ADD PUSH2 0xEF6 JUMP JUMPDEST SWAP2 POP POP SWAP3 SWAP2 POP POP JUMP JUMPDEST PUSH0 PUSH2 0xF3F DUP3 PUSH2 0xC32 JUMP JUMPDEST SWAP2 POP PUSH2 0xF4A DUP4 PUSH2 0xC32 JUMP JUMPDEST SWAP3 POP DUP3 DUP3 SUB SWAP1 POP DUP2 DUP2 GT ISZERO PUSH2 0xF62 JUMPI PUSH2 0xF61 PUSH2 0xD6B JUMP JUMPDEST JUMPDEST SWAP3 SWAP2 POP POP JUMP JUMPDEST PUSH0 PUSH1 0x40 DUP3 ADD SWAP1 POP PUSH2 0xF7B PUSH0 DUP4 ADD DUP6 PUSH2 0xE9B JUMP JUMPDEST PUSH2 0xF88 PUSH1 0x20 DUP4 ADD DUP5 PUSH2 0xE9B JUMP JUMPDEST SWAP4 SWAP3 POP POP POP JUMP JUMPDEST PUSH0 DUP2 MLOAD SWAP1 POP PUSH2 0xF9D DUP2 PUSH2 0xC3B JUMP JUMPDEST SWAP3 SWAP2 POP POP JUMP JUMPDEST PUSH0 PUSH1 0x20 DUP3 DUP5 SUB SLT ISZERO PUSH2 0xFB8 JUMPI PUSH2 0xFB7 PUSH2 0xB63 JUMP JUMPDEST JUMPDEST PUSH0 PUSH2 0xFC5 DUP5 DUP3 DUP6 ADD PUSH2 0xF8F JUMP JUMPDEST SWAP2 POP POP SWAP3 SWAP2 POP POP JUMP JUMPDEST PUSH32 0x59657465726C6920416C6C6F77656E636520796F6B20417070726F7665207965 PUSH0 DUP3 ADD MSTORE PUSH32 0x746B69736920766572696E000000000000000000000000000000000000000000 PUSH1 0x20 DUP3 ADD MSTORE POP JUMP JUMPDEST PUSH0 PUSH2 0x1028 PUSH1 0x2B DUP4 PUSH2 0xCF3 JUMP JUMPDEST SWAP2 POP PUSH2 0x1033 DUP3 PUSH2 0xFCE JUMP JUMPDEST PUSH1 0x40 DUP3 ADD SWAP1 POP SWAP2 SWAP1 POP JUMP JUMPDEST PUSH0 PUSH1 0x20 DUP3 ADD SWAP1 POP DUP2 DUP2 SUB PUSH0 DUP4 ADD MSTORE PUSH2 0x1055 DUP2 PUSH2 0x101C JUMP JUMPDEST SWAP1 POP SWAP2 SWAP1 POP JUMP JUMPDEST PUSH0 PUSH1 0x60 DUP3 ADD SWAP1 POP PUSH2 0x106F PUSH0 DUP4 ADD DUP7 PUSH2 0xE9B JUMP JUMPDEST PUSH2 0x107C PUSH1 0x20 DUP4 ADD DUP6 PUSH2 0xE9B JUMP JUMPDEST PUSH2 0x1089 PUSH1 0x40 DUP4 ADD DUP5 PUSH2 0xEAA JUMP JUMPDEST SWAP5 SWAP4 POP POP POP POP JUMP JUMPDEST PUSH0 PUSH2 0x109B DUP3 PUSH2 0xC32 JUMP JUMPDEST SWAP2 POP PUSH2 0x10A6 DUP4 PUSH2 0xC32 JUMP JUMPDEST SWAP3 POP DUP3 DUP3 MUL PUSH2 0x10B4 DUP2 PUSH2 0xC32 JUMP JUMPDEST SWAP2 POP DUP3 DUP3 DIV DUP5 EQ DUP4 ISZERO OR PUSH2 0x10CB JUMPI PUSH2 0x10CA PUSH2 0xD6B JUMP JUMPDEST JUMPDEST POP SWAP3 SWAP2 POP POP JUMP INVALID LOG2 PUSH5 0x6970667358 0x22 SLT KECCAK256 0xCC 0xC8 STOP DUP9 0x2C EXTCODESIZE POP 0xCB STOP 0xB2 DIV 0xC0 PUSH22 0x3A7D25A824D928F618917F1782C4CA853A10B964736F PUSH13 0x634300081B0033000000000000 "
				},
				"gasEstimates": {
					"creation": {
						"codeDepositCost": "872000",
						"executionCost": "infinite",
						"totalCost": "infinite"
					},
					"external": {
						"Deposit(address,uint256,uint256)": "infinite",
						"TransferOwnership(address,address)": "infinite",
						"Withdraw(address,uint256)": "infinite"
					}
				},
				"methodIdentifiers": {
					"Deposit(address,uint256,uint256)": "90890809",
					"TransferOwnership(address,address)": "5c486528",
					"Withdraw(address,uint256)": "884edad9"
				}
			},
			"storageLayout": {
				"storage": [
					{
						"astId": 84,
						"contract": "contracts/kontrat icinde kontrat example/firstContract.sol:FC",
						"label": "usersAmount",
						"offset": 0,
						"slot": "0",
						"type": "t_mapping(t_address,t_uint256)"
					},
					{
						"astId": 88,
						"contract": "contracts/kontrat icinde kontrat example/firstContract.sol:FC",
						"label": "userDays",
						"offset": 0,
						"slot": "1",
						"type": "t_mapping(t_address,t_uint256)"
					},
					{
						"astId": 91,
						"contract": "contracts/kontrat icinde kontrat example/firstContract.sol:FC",
						"label": "token",
						"offset": 0,
						"slot": "2",
						"type": "t_contract(IERC20)77"
					},
					{
						"astId": 93,
						"contract": "contracts/kontrat icinde kontrat example/firstContract.sol:FC",
						"label": "owner",
						"offset": 0,
						"slot": "3",
						"type": "t_address"
					}
				],
				"types": {
					"t_address": {
						"encoding": "inplace",
						"label": "address",
						"numberOfBytes": "20"
					},
					"t_contract(IERC20)77": {
						"encoding": "inplace",
						"label": "contract IERC20",
						"numberOfBytes": "20"
					},
					"t_mapping(t_address,t_uint256)": {
						"encoding": "mapping",
						"key": "t_address",
						"label": "mapping(address => uint256)",
						"numberOfBytes": "32",
						"value": "t_uint256"
					},
					"t_uint256": {
						"encoding": "inplace",
						"label": "uint256",
						"numberOfBytes": "32"
					}
				}
			},
			"userdoc": {
				"kind": "user",
				"methods": {},
				"version": 1
			}
		}
	}
}